{
    "abi": [
        {
            "type": "constructor",
            "inputs": [],
            "stateMutability": "nonpayable"
        },
        {
            "type": "receive",
            "stateMutability": "payable"
        },
        {
            "type": "function",
            "name": "BOOST_PRECISION",
            "inputs": [],
            "outputs": [
                {
                    "name": "",
                    "type": "uint256",
                    "internalType": "uint256"
                }
            ],
            "stateMutability": "view"
        },
        {
            "type": "function",
            "name": "FARM_BOOSTER",
            "inputs": [],
            "outputs": [
                {
                    "name": "",
                    "type": "address",
                    "internalType": "contract IFarmBooster"
                }
            ],
            "stateMutability": "view"
        },
        {
            "type": "function",
            "name": "LMPoolDeployer",
            "inputs": [],
            "outputs": [
                {
                    "name": "",
                    "type": "address",
                    "internalType": "contract ILMPoolDeployer"
                }
            ],
            "stateMutability": "view"
        },
        {
            "type": "function",
            "name": "MAX_BOOST_PRECISION",
            "inputs": [],
            "outputs": [
                {
                    "name": "",
                    "type": "uint256",
                    "internalType": "uint256"
                }
            ],
            "stateMutability": "view"
        },
        {
            "type": "function",
            "name": "MAX_DURATION",
            "inputs": [],
            "outputs": [
                {
                    "name": "",
                    "type": "uint256",
                    "internalType": "uint256"
                }
            ],
            "stateMutability": "view"
        },
        {
            "type": "function",
            "name": "MIN_DURATION",
            "inputs": [],
            "outputs": [
                {
                    "name": "",
                    "type": "uint256",
                    "internalType": "uint256"
                }
            ],
            "stateMutability": "view"
        },
        {
            "type": "function",
            "name": "PERIOD_DURATION",
            "inputs": [],
            "outputs": [
                {
                    "name": "",
                    "type": "uint256",
                    "internalType": "uint256"
                }
            ],
            "stateMutability": "view"
        },
        {
            "type": "function",
            "name": "PRECISION",
            "inputs": [],
            "outputs": [
                {
                    "name": "",
                    "type": "uint256",
                    "internalType": "uint256"
                }
            ],
            "stateMutability": "view"
        },
        {
            "type": "function",
            "name": "REWARD_TOKEN",
            "inputs": [],
            "outputs": [
                {
                    "name": "",
                    "type": "address",
                    "internalType": "contract IERC20"
                }
            ],
            "stateMutability": "view"
        },
        {
            "type": "function",
            "name": "WIP",
            "inputs": [],
            "outputs": [
                {
                    "name": "",
                    "type": "address",
                    "internalType": "address"
                }
            ],
            "stateMutability": "view"
        },
        {
            "type": "function",
            "name": "acceptOwnership",
            "inputs": [],
            "outputs": [],
            "stateMutability": "nonpayable"
        },
        {
            "type": "function",
            "name": "add",
            "inputs": [
                {
                    "name": "_allocPoint",
                    "type": "uint256",
                    "internalType": "uint256"
                },
                {
                    "name": "_v3Pool",
                    "type": "address",
                    "internalType": "contract IStoryHuntV3Pool"
                },
                {
                    "name": "_withUpdate",
                    "type": "bool",
                    "internalType": "bool"
                }
            ],
            "outputs": [],
            "stateMutability": "nonpayable"
        },
        {
            "type": "function",
            "name": "balanceOf",
            "inputs": [
                {
                    "name": "owner",
                    "type": "address",
                    "internalType": "address"
                }
            ],
            "outputs": [
                {
                    "name": "",
                    "type": "uint256",
                    "internalType": "uint256"
                }
            ],
            "stateMutability": "view"
        },
        {
            "type": "function",
            "name": "burn",
            "inputs": [
                {
                    "name": "_tokenId",
                    "type": "uint256",
                    "internalType": "uint256"
                }
            ],
            "outputs": [],
            "stateMutability": "nonpayable"
        },
        {
            "type": "function",
            "name": "collect",
            "inputs": [
                {
                    "name": "params",
                    "type": "tuple",
                    "internalType": "struct INonfungiblePositionManagerStruct.CollectParams",
                    "components": [
                        {
                            "name": "tokenId",
                            "type": "uint256",
                            "internalType": "uint256"
                        },
                        {
                            "name": "recipient",
                            "type": "address",
                            "internalType": "address"
                        },
                        {
                            "name": "amount0Max",
                            "type": "uint128",
                            "internalType": "uint128"
                        },
                        {
                            "name": "amount1Max",
                            "type": "uint128",
                            "internalType": "uint128"
                        }
                    ]
                }
            ],
            "outputs": [
                {
                    "name": "amount0",
                    "type": "uint256",
                    "internalType": "uint256"
                },
                {
                    "name": "amount1",
                    "type": "uint256",
                    "internalType": "uint256"
                }
            ],
            "stateMutability": "nonpayable"
        },
        {
            "type": "function",
            "name": "collectTo",
            "inputs": [
                {
                    "name": "params",
                    "type": "tuple",
                    "internalType": "struct INonfungiblePositionManagerStruct.CollectParams",
                    "components": [
                        {
                            "name": "tokenId",
                            "type": "uint256",
                            "internalType": "uint256"
                        },
                        {
                            "name": "recipient",
                            "type": "address",
                            "internalType": "address"
                        },
                        {
                            "name": "amount0Max",
                            "type": "uint128",
                            "internalType": "uint128"
                        },
                        {
                            "name": "amount1Max",
                            "type": "uint128",
                            "internalType": "uint128"
                        }
                    ]
                },
                {
                    "name": "to",
                    "type": "address",
                    "internalType": "address"
                }
            ],
            "outputs": [
                {
                    "name": "amount0",
                    "type": "uint256",
                    "internalType": "uint256"
                },
                {
                    "name": "amount1",
                    "type": "uint256",
                    "internalType": "uint256"
                }
            ],
            "stateMutability": "nonpayable"
        },
        {
            "type": "function",
            "name": "decreaseLiquidity",
            "inputs": [
                {
                    "name": "params",
                    "type": "tuple",
                    "internalType": "struct INonfungiblePositionManagerStruct.DecreaseLiquidityParams",
                    "components": [
                        {
                            "name": "tokenId",
                            "type": "uint256",
                            "internalType": "uint256"
                        },
                        {
                            "name": "liquidity",
                            "type": "uint128",
                            "internalType": "uint128"
                        },
                        {
                            "name": "amount0Min",
                            "type": "uint256",
                            "internalType": "uint256"
                        },
                        {
                            "name": "amount1Min",
                            "type": "uint256",
                            "internalType": "uint256"
                        },
                        {
                            "name": "deadline",
                            "type": "uint256",
                            "internalType": "uint256"
                        }
                    ]
                }
            ],
            "outputs": [
                {
                    "name": "amount0",
                    "type": "uint256",
                    "internalType": "uint256"
                },
                {
                    "name": "amount1",
                    "type": "uint256",
                    "internalType": "uint256"
                }
            ],
            "stateMutability": "nonpayable"
        },
        {
            "type": "function",
            "name": "emergency",
            "inputs": [],
            "outputs": [
                {
                    "name": "",
                    "type": "bool",
                    "internalType": "bool"
                }
            ],
            "stateMutability": "view"
        },
        {
            "type": "function",
            "name": "emergencyWithdraw",
            "inputs": [],
            "outputs": [],
            "stateMutability": "nonpayable"
        },
        {
            "type": "function",
            "name": "getLatestPeriodInfo",
            "inputs": [
                {
                    "name": "_v3Pool",
                    "type": "address",
                    "internalType": "address"
                }
            ],
            "outputs": [
                {
                    "name": "cakePerSecond",
                    "type": "uint256",
                    "internalType": "uint256"
                },
                {
                    "name": "endTime",
                    "type": "uint256",
                    "internalType": "uint256"
                }
            ],
            "stateMutability": "view"
        },
        {
            "type": "function",
            "name": "getLatestPeriodInfoByPid",
            "inputs": [
                {
                    "name": "_pid",
                    "type": "uint256",
                    "internalType": "uint256"
                }
            ],
            "outputs": [
                {
                    "name": "cakePerSecond",
                    "type": "uint256",
                    "internalType": "uint256"
                },
                {
                    "name": "endTime",
                    "type": "uint256",
                    "internalType": "uint256"
                }
            ],
            "stateMutability": "view"
        },
        {
            "type": "function",
            "name": "harvest",
            "inputs": [
                {
                    "name": "_tokenId",
                    "type": "uint256",
                    "internalType": "uint256"
                },
                {
                    "name": "_to",
                    "type": "address",
                    "internalType": "address"
                }
            ],
            "outputs": [
                {
                    "name": "reward",
                    "type": "uint256",
                    "internalType": "uint256"
                }
            ],
            "stateMutability": "nonpayable"
        },
        {
            "type": "function",
            "name": "increaseLiquidity",
            "inputs": [
                {
                    "name": "params",
                    "type": "tuple",
                    "internalType": "struct INonfungiblePositionManagerStruct.IncreaseLiquidityParams",
                    "components": [
                        {
                            "name": "tokenId",
                            "type": "uint256",
                            "internalType": "uint256"
                        },
                        {
                            "name": "amount0Desired",
                            "type": "uint256",
                            "internalType": "uint256"
                        },
                        {
                            "name": "amount1Desired",
                            "type": "uint256",
                            "internalType": "uint256"
                        },
                        {
                            "name": "amount0Min",
                            "type": "uint256",
                            "internalType": "uint256"
                        },
                        {
                            "name": "amount1Min",
                            "type": "uint256",
                            "internalType": "uint256"
                        },
                        {
                            "name": "deadline",
                            "type": "uint256",
                            "internalType": "uint256"
                        }
                    ]
                }
            ],
            "outputs": [
                {
                    "name": "liquidity",
                    "type": "uint128",
                    "internalType": "uint128"
                },
                {
                    "name": "amount0",
                    "type": "uint256",
                    "internalType": "uint256"
                },
                {
                    "name": "amount1",
                    "type": "uint256",
                    "internalType": "uint256"
                }
            ],
            "stateMutability": "payable"
        },
        {
            "type": "function",
            "name": "initialize",
            "inputs": [
                {
                    "name": "_REWARD",
                    "type": "address",
                    "internalType": "contract IERC20"
                },
                {
                    "name": "_nonfungiblePositionManager",
                    "type": "address",
                    "internalType": "contract INonfungiblePositionManager"
                },
                {
                    "name": "_WIP",
                    "type": "address",
                    "internalType": "address"
                }
            ],
            "outputs": [],
            "stateMutability": "nonpayable"
        },
        {
            "type": "function",
            "name": "latestPeriodCakePerSecond",
            "inputs": [],
            "outputs": [
                {
                    "name": "",
                    "type": "uint256",
                    "internalType": "uint256"
                }
            ],
            "stateMutability": "view"
        },
        {
            "type": "function",
            "name": "latestPeriodEndTime",
            "inputs": [],
            "outputs": [
                {
                    "name": "",
                    "type": "uint256",
                    "internalType": "uint256"
                }
            ],
            "stateMutability": "view"
        },
        {
            "type": "function",
            "name": "latestPeriodNumber",
            "inputs": [],
            "outputs": [
                {
                    "name": "",
                    "type": "uint256",
                    "internalType": "uint256"
                }
            ],
            "stateMutability": "view"
        },
        {
            "type": "function",
            "name": "latestPeriodStartTime",
            "inputs": [],
            "outputs": [
                {
                    "name": "",
                    "type": "uint256",
                    "internalType": "uint256"
                }
            ],
            "stateMutability": "view"
        },
        {
            "type": "function",
            "name": "multicall",
            "inputs": [
                {
                    "name": "data",
                    "type": "bytes[]",
                    "internalType": "bytes[]"
                }
            ],
            "outputs": [
                {
                    "name": "results",
                    "type": "bytes[]",
                    "internalType": "bytes[]"
                }
            ],
            "stateMutability": "payable"
        },
        {
            "type": "function",
            "name": "nonfungiblePositionManager",
            "inputs": [],
            "outputs": [
                {
                    "name": "",
                    "type": "address",
                    "internalType": "contract INonfungiblePositionManager"
                }
            ],
            "stateMutability": "view"
        },
        {
            "type": "function",
            "name": "onERC721Received",
            "inputs": [
                {
                    "name": "",
                    "type": "address",
                    "internalType": "address"
                },
                {
                    "name": "_from",
                    "type": "address",
                    "internalType": "address"
                },
                {
                    "name": "_tokenId",
                    "type": "uint256",
                    "internalType": "uint256"
                },
                {
                    "name": "",
                    "type": "bytes",
                    "internalType": "bytes"
                }
            ],
            "outputs": [
                {
                    "name": "",
                    "type": "bytes4",
                    "internalType": "bytes4"
                }
            ],
            "stateMutability": "nonpayable"
        },
        {
            "type": "function",
            "name": "operatorAddress",
            "inputs": [],
            "outputs": [
                {
                    "name": "",
                    "type": "address",
                    "internalType": "address"
                }
            ],
            "stateMutability": "view"
        },
        {
            "type": "function",
            "name": "owner",
            "inputs": [],
            "outputs": [
                {
                    "name": "",
                    "type": "address",
                    "internalType": "address"
                }
            ],
            "stateMutability": "view"
        },
        {
            "type": "function",
            "name": "pendingCake",
            "inputs": [
                {
                    "name": "_tokenId",
                    "type": "uint256",
                    "internalType": "uint256"
                }
            ],
            "outputs": [
                {
                    "name": "reward",
                    "type": "uint256",
                    "internalType": "uint256"
                }
            ],
            "stateMutability": "view"
        },
        {
            "type": "function",
            "name": "pendingOwner",
            "inputs": [],
            "outputs": [
                {
                    "name": "",
                    "type": "address",
                    "internalType": "address"
                }
            ],
            "stateMutability": "view"
        },
        {
            "type": "function",
            "name": "poolInfo",
            "inputs": [
                {
                    "name": "",
                    "type": "uint256",
                    "internalType": "uint256"
                }
            ],
            "outputs": [
                {
                    "name": "allocPoint",
                    "type": "uint256",
                    "internalType": "uint256"
                },
                {
                    "name": "v3Pool",
                    "type": "address",
                    "internalType": "contract IStoryHuntV3Pool"
                },
                {
                    "name": "token0",
                    "type": "address",
                    "internalType": "address"
                },
                {
                    "name": "token1",
                    "type": "address",
                    "internalType": "address"
                },
                {
                    "name": "fee",
                    "type": "uint24",
                    "internalType": "uint24"
                },
                {
                    "name": "totalLiquidity",
                    "type": "uint256",
                    "internalType": "uint256"
                },
                {
                    "name": "totalBoostLiquidity",
                    "type": "uint256",
                    "internalType": "uint256"
                }
            ],
            "stateMutability": "view"
        },
        {
            "type": "function",
            "name": "poolLength",
            "inputs": [],
            "outputs": [
                {
                    "name": "",
                    "type": "uint256",
                    "internalType": "uint256"
                }
            ],
            "stateMutability": "view"
        },
        {
            "type": "function",
            "name": "proxiableUUID",
            "inputs": [],
            "outputs": [
                {
                    "name": "",
                    "type": "bytes32",
                    "internalType": "bytes32"
                }
            ],
            "stateMutability": "view"
        },
        {
            "type": "function",
            "name": "receiver",
            "inputs": [],
            "outputs": [
                {
                    "name": "",
                    "type": "address",
                    "internalType": "address"
                }
            ],
            "stateMutability": "view"
        },
        {
            "type": "function",
            "name": "renounceOwnership",
            "inputs": [],
            "outputs": [],
            "stateMutability": "nonpayable"
        },
        {
            "type": "function",
            "name": "rewardAmountBelongToAlphaHunter",
            "inputs": [],
            "outputs": [
                {
                    "name": "",
                    "type": "uint256",
                    "internalType": "uint256"
                }
            ],
            "stateMutability": "view"
        },
        {
            "type": "function",
            "name": "set",
            "inputs": [
                {
                    "name": "_pid",
                    "type": "uint256",
                    "internalType": "uint256"
                },
                {
                    "name": "_allocPoint",
                    "type": "uint256",
                    "internalType": "uint256"
                },
                {
                    "name": "_withUpdate",
                    "type": "bool",
                    "internalType": "bool"
                }
            ],
            "outputs": [],
            "stateMutability": "nonpayable"
        },
        {
            "type": "function",
            "name": "setEmergency",
            "inputs": [
                {
                    "name": "_emergency",
                    "type": "bool",
                    "internalType": "bool"
                }
            ],
            "outputs": [],
            "stateMutability": "nonpayable"
        },
        {
            "type": "function",
            "name": "setLMPoolDeployer",
            "inputs": [
                {
                    "name": "_LMPoolDeployer",
                    "type": "address",
                    "internalType": "contract ILMPoolDeployer"
                }
            ],
            "outputs": [],
            "stateMutability": "nonpayable"
        },
        {
            "type": "function",
            "name": "setOperator",
            "inputs": [
                {
                    "name": "_operatorAddress",
                    "type": "address",
                    "internalType": "address"
                }
            ],
            "outputs": [],
            "stateMutability": "nonpayable"
        },
        {
            "type": "function",
            "name": "setPeriodDuration",
            "inputs": [
                {
                    "name": "_periodDuration",
                    "type": "uint256",
                    "internalType": "uint256"
                }
            ],
            "outputs": [],
            "stateMutability": "nonpayable"
        },
        {
            "type": "function",
            "name": "setReceiver",
            "inputs": [
                {
                    "name": "_receiver",
                    "type": "address",
                    "internalType": "address"
                }
            ],
            "outputs": [],
            "stateMutability": "nonpayable"
        },
        {
            "type": "function",
            "name": "sweepToken",
            "inputs": [
                {
                    "name": "token",
                    "type": "address",
                    "internalType": "address"
                },
                {
                    "name": "amountMinimum",
                    "type": "uint256",
                    "internalType": "uint256"
                },
                {
                    "name": "recipient",
                    "type": "address",
                    "internalType": "address"
                }
            ],
            "outputs": [],
            "stateMutability": "nonpayable"
        },
        {
            "type": "function",
            "name": "tokenOfOwnerByIndex",
            "inputs": [
                {
                    "name": "owner",
                    "type": "address",
                    "internalType": "address"
                },
                {
                    "name": "index",
                    "type": "uint256",
                    "internalType": "uint256"
                }
            ],
            "outputs": [
                {
                    "name": "",
                    "type": "uint256",
                    "internalType": "uint256"
                }
            ],
            "stateMutability": "view"
        },
        {
            "type": "function",
            "name": "totalAllocPoint",
            "inputs": [],
            "outputs": [
                {
                    "name": "",
                    "type": "uint256",
                    "internalType": "uint256"
                }
            ],
            "stateMutability": "view"
        },
        {
            "type": "function",
            "name": "transferOwnership",
            "inputs": [
                {
                    "name": "newOwner",
                    "type": "address",
                    "internalType": "address"
                }
            ],
            "outputs": [],
            "stateMutability": "nonpayable"
        },
        {
            "type": "function",
            "name": "unwrapWIP9",
            "inputs": [
                {
                    "name": "amountMinimum",
                    "type": "uint256",
                    "internalType": "uint256"
                },
                {
                    "name": "recipient",
                    "type": "address",
                    "internalType": "address"
                }
            ],
            "outputs": [],
            "stateMutability": "nonpayable"
        },
        {
            "type": "function",
            "name": "updateBoostMultiplier",
            "inputs": [
                {
                    "name": "_tokenId",
                    "type": "uint256",
                    "internalType": "uint256"
                },
                {
                    "name": "_newMultiplier",
                    "type": "uint256",
                    "internalType": "uint256"
                }
            ],
            "outputs": [],
            "stateMutability": "nonpayable"
        },
        {
            "type": "function",
            "name": "updateFarmBoostContract",
            "inputs": [
                {
                    "name": "_newFarmBoostContract",
                    "type": "address",
                    "internalType": "address"
                }
            ],
            "outputs": [],
            "stateMutability": "nonpayable"
        },
        {
            "type": "function",
            "name": "updateLiquidity",
            "inputs": [
                {
                    "name": "_tokenId",
                    "type": "uint256",
                    "internalType": "uint256"
                }
            ],
            "outputs": [],
            "stateMutability": "nonpayable"
        },
        {
            "type": "function",
            "name": "updatePools",
            "inputs": [
                {
                    "name": "pids",
                    "type": "uint256[]",
                    "internalType": "uint256[]"
                }
            ],
            "outputs": [],
            "stateMutability": "nonpayable"
        },
        {
            "type": "function",
            "name": "upgradeTo",
            "inputs": [
                {
                    "name": "newImplementation",
                    "type": "address",
                    "internalType": "address"
                }
            ],
            "outputs": [],
            "stateMutability": "nonpayable"
        },
        {
            "type": "function",
            "name": "upgradeToAndCall",
            "inputs": [
                {
                    "name": "newImplementation",
                    "type": "address",
                    "internalType": "address"
                },
                {
                    "name": "data",
                    "type": "bytes",
                    "internalType": "bytes"
                }
            ],
            "outputs": [],
            "stateMutability": "payable"
        },
        {
            "type": "function",
            "name": "upkeep",
            "inputs": [
                {
                    "name": "_amount",
                    "type": "uint256",
                    "internalType": "uint256"
                },
                {
                    "name": "_duration",
                    "type": "uint256",
                    "internalType": "uint256"
                },
                {
                    "name": "_withUpdate",
                    "type": "bool",
                    "internalType": "bool"
                }
            ],
            "outputs": [],
            "stateMutability": "nonpayable"
        },
        {
            "type": "function",
            "name": "userPositionInfos",
            "inputs": [
                {
                    "name": "",
                    "type": "uint256",
                    "internalType": "uint256"
                }
            ],
            "outputs": [
                {
                    "name": "liquidity",
                    "type": "uint128",
                    "internalType": "uint128"
                },
                {
                    "name": "boostLiquidity",
                    "type": "uint128",
                    "internalType": "uint128"
                },
                {
                    "name": "tickLower",
                    "type": "int24",
                    "internalType": "int24"
                },
                {
                    "name": "tickUpper",
                    "type": "int24",
                    "internalType": "int24"
                },
                {
                    "name": "rewardGrowthInside",
                    "type": "uint256",
                    "internalType": "uint256"
                },
                {
                    "name": "reward",
                    "type": "uint256",
                    "internalType": "uint256"
                },
                {
                    "name": "user",
                    "type": "address",
                    "internalType": "address"
                },
                {
                    "name": "pid",
                    "type": "uint256",
                    "internalType": "uint256"
                },
                {
                    "name": "boostMultiplier",
                    "type": "uint256",
                    "internalType": "uint256"
                }
            ],
            "stateMutability": "view"
        },
        {
            "type": "function",
            "name": "v3PoolAddressPid",
            "inputs": [
                {
                    "name": "",
                    "type": "address",
                    "internalType": "address"
                }
            ],
            "outputs": [
                {
                    "name": "",
                    "type": "uint256",
                    "internalType": "uint256"
                }
            ],
            "stateMutability": "view"
        },
        {
            "type": "function",
            "name": "withdraw",
            "inputs": [
                {
                    "name": "_tokenId",
                    "type": "uint256",
                    "internalType": "uint256"
                },
                {
                    "name": "_to",
                    "type": "address",
                    "internalType": "address"
                }
            ],
            "outputs": [
                {
                    "name": "reward",
                    "type": "uint256",
                    "internalType": "uint256"
                }
            ],
            "stateMutability": "nonpayable"
        },
        {
            "type": "event",
            "name": "AddPool",
            "inputs": [
                {
                    "name": "pid",
                    "type": "uint256",
                    "indexed": true,
                    "internalType": "uint256"
                },
                {
                    "name": "allocPoint",
                    "type": "uint256",
                    "indexed": false,
                    "internalType": "uint256"
                },
                {
                    "name": "v3Pool",
                    "type": "address",
                    "indexed": true,
                    "internalType": "contract IStoryHuntV3Pool"
                },
                {
                    "name": "lmPool",
                    "type": "address",
                    "indexed": true,
                    "internalType": "contract ILMPool"
                }
            ],
            "anonymous": false
        },
        {
            "type": "event",
            "name": "AdminChanged",
            "inputs": [
                {
                    "name": "previousAdmin",
                    "type": "address",
                    "indexed": false,
                    "internalType": "address"
                },
                {
                    "name": "newAdmin",
                    "type": "address",
                    "indexed": false,
                    "internalType": "address"
                }
            ],
            "anonymous": false
        },
        {
            "type": "event",
            "name": "BeaconUpgraded",
            "inputs": [
                {
                    "name": "beacon",
                    "type": "address",
                    "indexed": true,
                    "internalType": "address"
                }
            ],
            "anonymous": false
        },
        {
            "type": "event",
            "name": "Deposit",
            "inputs": [
                {
                    "name": "from",
                    "type": "address",
                    "indexed": true,
                    "internalType": "address"
                },
                {
                    "name": "pid",
                    "type": "uint256",
                    "indexed": true,
                    "internalType": "uint256"
                },
                {
                    "name": "tokenId",
                    "type": "uint256",
                    "indexed": true,
                    "internalType": "uint256"
                },
                {
                    "name": "liquidity",
                    "type": "uint256",
                    "indexed": false,
                    "internalType": "uint256"
                },
                {
                    "name": "tickLower",
                    "type": "int24",
                    "indexed": false,
                    "internalType": "int24"
                },
                {
                    "name": "tickUpper",
                    "type": "int24",
                    "indexed": false,
                    "internalType": "int24"
                }
            ],
            "anonymous": false
        },
        {
            "type": "event",
            "name": "Harvest",
            "inputs": [
                {
                    "name": "sender",
                    "type": "address",
                    "indexed": true,
                    "internalType": "address"
                },
                {
                    "name": "to",
                    "type": "address",
                    "indexed": false,
                    "internalType": "address"
                },
                {
                    "name": "pid",
                    "type": "uint256",
                    "indexed": true,
                    "internalType": "uint256"
                },
                {
                    "name": "tokenId",
                    "type": "uint256",
                    "indexed": true,
                    "internalType": "uint256"
                },
                {
                    "name": "reward",
                    "type": "uint256",
                    "indexed": false,
                    "internalType": "uint256"
                }
            ],
            "anonymous": false
        },
        {
            "type": "event",
            "name": "Initialized",
            "inputs": [
                {
                    "name": "version",
                    "type": "uint8",
                    "indexed": false,
                    "internalType": "uint8"
                }
            ],
            "anonymous": false
        },
        {
            "type": "event",
            "name": "NewLMPoolDeployerAddress",
            "inputs": [
                {
                    "name": "deployer",
                    "type": "address",
                    "indexed": false,
                    "internalType": "address"
                }
            ],
            "anonymous": false
        },
        {
            "type": "event",
            "name": "NewOperatorAddress",
            "inputs": [
                {
                    "name": "operator",
                    "type": "address",
                    "indexed": false,
                    "internalType": "address"
                }
            ],
            "anonymous": false
        },
        {
            "type": "event",
            "name": "NewPeriodDuration",
            "inputs": [
                {
                    "name": "periodDuration",
                    "type": "uint256",
                    "indexed": false,
                    "internalType": "uint256"
                }
            ],
            "anonymous": false
        },
        {
            "type": "event",
            "name": "NewReceiver",
            "inputs": [
                {
                    "name": "receiver",
                    "type": "address",
                    "indexed": false,
                    "internalType": "address"
                }
            ],
            "anonymous": false
        },
        {
            "type": "event",
            "name": "NewUpkeepPeriod",
            "inputs": [
                {
                    "name": "periodNumber",
                    "type": "uint256",
                    "indexed": true,
                    "internalType": "uint256"
                },
                {
                    "name": "startTime",
                    "type": "uint256",
                    "indexed": false,
                    "internalType": "uint256"
                },
                {
                    "name": "endTime",
                    "type": "uint256",
                    "indexed": false,
                    "internalType": "uint256"
                },
                {
                    "name": "cakePerSecond",
                    "type": "uint256",
                    "indexed": false,
                    "internalType": "uint256"
                },
                {
                    "name": "cakeAmount",
                    "type": "uint256",
                    "indexed": false,
                    "internalType": "uint256"
                }
            ],
            "anonymous": false
        },
        {
            "type": "event",
            "name": "OwnershipTransferStarted",
            "inputs": [
                {
                    "name": "previousOwner",
                    "type": "address",
                    "indexed": true,
                    "internalType": "address"
                },
                {
                    "name": "newOwner",
                    "type": "address",
                    "indexed": true,
                    "internalType": "address"
                }
            ],
            "anonymous": false
        },
        {
            "type": "event",
            "name": "OwnershipTransferred",
            "inputs": [
                {
                    "name": "previousOwner",
                    "type": "address",
                    "indexed": true,
                    "internalType": "address"
                },
                {
                    "name": "newOwner",
                    "type": "address",
                    "indexed": true,
                    "internalType": "address"
                }
            ],
            "anonymous": false
        },
        {
            "type": "event",
            "name": "SetEmergency",
            "inputs": [
                {
                    "name": "emergency",
                    "type": "bool",
                    "indexed": false,
                    "internalType": "bool"
                }
            ],
            "anonymous": false
        },
        {
            "type": "event",
            "name": "SetPool",
            "inputs": [
                {
                    "name": "pid",
                    "type": "uint256",
                    "indexed": true,
                    "internalType": "uint256"
                },
                {
                    "name": "allocPoint",
                    "type": "uint256",
                    "indexed": false,
                    "internalType": "uint256"
                }
            ],
            "anonymous": false
        },
        {
            "type": "event",
            "name": "UpdateFarmBoostContract",
            "inputs": [
                {
                    "name": "farmBoostContract",
                    "type": "address",
                    "indexed": true,
                    "internalType": "address"
                }
            ],
            "anonymous": false
        },
        {
            "type": "event",
            "name": "UpdateLiquidity",
            "inputs": [
                {
                    "name": "from",
                    "type": "address",
                    "indexed": true,
                    "internalType": "address"
                },
                {
                    "name": "pid",
                    "type": "uint256",
                    "indexed": true,
                    "internalType": "uint256"
                },
                {
                    "name": "tokenId",
                    "type": "uint256",
                    "indexed": true,
                    "internalType": "uint256"
                },
                {
                    "name": "liquidity",
                    "type": "int128",
                    "indexed": false,
                    "internalType": "int128"
                },
                {
                    "name": "tickLower",
                    "type": "int24",
                    "indexed": false,
                    "internalType": "int24"
                },
                {
                    "name": "tickUpper",
                    "type": "int24",
                    "indexed": false,
                    "internalType": "int24"
                }
            ],
            "anonymous": false
        },
        {
            "type": "event",
            "name": "UpdateUpkeepPeriod",
            "inputs": [
                {
                    "name": "periodNumber",
                    "type": "uint256",
                    "indexed": true,
                    "internalType": "uint256"
                },
                {
                    "name": "oldEndTime",
                    "type": "uint256",
                    "indexed": false,
                    "internalType": "uint256"
                },
                {
                    "name": "newEndTime",
                    "type": "uint256",
                    "indexed": false,
                    "internalType": "uint256"
                },
                {
                    "name": "remainingCake",
                    "type": "uint256",
                    "indexed": false,
                    "internalType": "uint256"
                }
            ],
            "anonymous": false
        },
        {
            "type": "event",
            "name": "Upgraded",
            "inputs": [
                {
                    "name": "implementation",
                    "type": "address",
                    "indexed": true,
                    "internalType": "address"
                }
            ],
            "anonymous": false
        },
        {
            "type": "event",
            "name": "Withdraw",
            "inputs": [
                {
                    "name": "from",
                    "type": "address",
                    "indexed": true,
                    "internalType": "address"
                },
                {
                    "name": "to",
                    "type": "address",
                    "indexed": false,
                    "internalType": "address"
                },
                {
                    "name": "pid",
                    "type": "uint256",
                    "indexed": true,
                    "internalType": "uint256"
                },
                {
                    "name": "tokenId",
                    "type": "uint256",
                    "indexed": true,
                    "internalType": "uint256"
                }
            ],
            "anonymous": false
        },
        {
            "type": "error",
            "name": "DuplicatedPool",
            "inputs": [
                {
                    "name": "pid",
                    "type": "uint256",
                    "internalType": "uint256"
                }
            ]
        },
        {
            "type": "error",
            "name": "InconsistentAmount",
            "inputs": []
        },
        {
            "type": "error",
            "name": "InsufficientAmount",
            "inputs": []
        },
        {
            "type": "error",
            "name": "InvalidNFT",
            "inputs": []
        },
        {
            "type": "error",
            "name": "InvalidPeriodDuration",
            "inputs": []
        },
        {
            "type": "error",
            "name": "InvalidPid",
            "inputs": []
        },
        {
            "type": "error",
            "name": "NoBalance",
            "inputs": []
        },
        {
            "type": "error",
            "name": "NoLMPool",
            "inputs": []
        },
        {
            "type": "error",
            "name": "NoLiquidity",
            "inputs": []
        },
        {
            "type": "error",
            "name": "NotEmpty",
            "inputs": []
        },
        {
            "type": "error",
            "name": "NotOwner",
            "inputs": []
        },
        {
            "type": "error",
            "name": "NotOwnerOrOperator",
            "inputs": []
        },
        {
            "type": "error",
            "name": "NotPancakeNFT",
            "inputs": []
        },
        {
            "type": "error",
            "name": "WrongReceiver",
            "inputs": []
        },
        {
            "type": "error",
            "name": "ZeroAddress",
            "inputs": []
        }
    ],
    "bytecode": {
        "object": "0x60a060405230608052620151806101105534801561001c57600080fd5b50600160005561002a61002f565b6100ee565b600454610100900460ff161561009b5760405162461bcd60e51b815260206004820152602760248201527f496e697469616c697a61626c653a20636f6e747261637420697320696e697469604482015266616c697a696e6760c81b606482015260840160405180910390fd5b60045460ff908116146100ec576004805460ff191660ff9081179091556040519081527f7f26b83ff96e1f2b6a682f133852f6798a09c465da95921460cefb38474024989060200160405180910390a15b565b608051615e37610125600039600081816124c901528181612509015281816129ff01528181612a3f0152612ad20152615e376000f3fe6080604052600436106103b05760003560e01c806379ba5097116101e7578063c4f6a8ce1161010d578063df2ab5bb116100a0578063f7260d3e1161006f578063f7260d3e14610c5e578063fbc911d014610c7f578063fc6f786514610ca0578063fcf0b9d814610cc057600080fd5b8063df2ab5bb14610be0578063e30c397814610c00578063eff7a11314610c1e578063f2fde38b14610c3e57600080fd5b8063ced09112116100dc578063ced0911214610b6b578063cf24284914610b8b578063cfb8ccfb14610bab578063db2e21bc14610bcb57600080fd5b8063c4f6a8ce14610b02578063caa6fea414610b19578063cc6db2da14610a19578063ce5f39c614610b4b57600080fd5b8063aaf5eb6811610185578063b44a272211610154578063b44a272214610a89578063b4ce128014610aaa578063b6a6d17714610acb578063c0c53b8b14610ae257600080fd5b8063aaf5eb6814610a19578063ac9650d814610a32578063b1724b4614610a52578063b3ab15fb14610a6957600080fd5b806399248ea7116101c157806399248ea7146109975780639ba879cf146109b8578063a15ea89f146109d9578063a80a71bd146109f957600080fd5b806379ba5097146109445780637c2d6e01146109595780638da5cb5b1461097957600080fd5b80632f745c59116102d757806364482f791161026a5780636d4cec78116102395780636d4cec78146108d857806370a08231146108ef578063715018a61461090f578063718da7ee1461092457600080fd5b806364482f79146108675780636558954f1461088757806369746a1d1461089e57806369b02128146108be57600080fd5b806342966c68116102a657806342966c68146107ff578063447809941461081f5780634f1ef2861461083f57806352d1902d1461085257600080fd5b80632f745c59146106c757806330ec24cc146106e75780633659cfe6146106fe5780633b1acf741461071e57600080fd5b80630defaff01161034f57806317caf6f11161031e57806317caf6f11461063857806318fccc761461064f5780631eaaa0451461066f578063219f5d171461068f57600080fd5b80630defaff0146104fa578063127effb214610511578063150b7a021461054a5780631526fe271461058357600080fd5b8063081e3eda1161038b578063081e3eda1461046f5780630c49ccbe146104855780630ce5d4cc146104ba5780630d55f913146104da57600080fd5b8062f714ce146103ee5780630501d556146104215780630743384d1461044157600080fd5b366103e957610107546001600160a01b031633148015906103dd5750610105546001600160a01b03163314155b156103e757600080fd5b005b600080fd5b3480156103fa57600080fd5b5061040e610409366004615243565b610cd7565b6040519081526020015b60405180910390f35b34801561042d57600080fd5b506103e761043c366004615281565b6110fc565b34801561044d57600080fd5b5061040e61045c36600461529e565b6101036020526000908152604090205481565b34801561047b57600080fd5b5061040e60ff5481565b34801561049157600080fd5b506104a56104a0366004615316565b611161565b60408051928352602083019190915201610418565b3480156104c657600080fd5b506103e76104d5366004615392565b61127f565b3480156104e657600080fd5b506104a56104f536600461544a565b61146b565b34801561050657600080fd5b5061040e6101115481565b34801561051d57600080fd5b5061010f54610532906001600160a01b031681565b6040516001600160a01b039091168152602001610418565b34801561055657600080fd5b5061056a610565366004615477565b61168d565b6040516001600160e01b03199091168152602001610418565b34801561058f57600080fd5b506105ef61059e366004615516565b6101006020526000908152604090208054600182015460028301546003840154600485015460059095015493946001600160a01b039384169492841693821692600160a01b90920462ffffff169187565b604080519788526001600160a01b0396871660208901529486169487019490945293909116606085015262ffffff16608084015260a083019190915260c082015260e001610418565b34801561064457600080fd5b5061040e61010a5481565b34801561065b57600080fd5b5061040e61066a366004615243565b611b63565b34801561067b57600080fd5b506103e761068a36600461552f565b611bf9565b6106a261069d366004615566565b6121c8565b604080516001600160801b039094168452602084019290925290820152606001610418565b3480156106d357600080fd5b5061040e6106e23660046155e3565b612421565b3480156106f357600080fd5b5061040e61010b5481565b34801561070a57600080fd5b506103e761071936600461529e565b6124bf565b34801561072a57600080fd5b5061079f610739366004615516565b610101602052600090815260409020805460018201546002808401546003850154600486015460058701546006909701546001600160801b0380881698600160801b909804169686860b966301000000900490950b946001600160a01b03909216919089565b604080516001600160801b039a8b1681529990981660208a0152600296870b978901979097529390940b6060870152608086019190915260a08501526001600160a01b0390911660c084015260e083015261010082015261012001610418565b34801561080b57600080fd5b506103e761081a366004615516565b61259e565b34801561082b57600080fd5b506103e761083a366004615653565b61281c565b6103e761084d3660046156bb565b6129f5565b34801561085e57600080fd5b5061040e612ac5565b34801561087357600080fd5b506103e7610882366004615392565b612b78565b34801561089357600080fd5b5061040e6101105481565b3480156108aa57600080fd5b506103e76108b936600461574d565b612d0d565b3480156108ca57600080fd5b5061040e6501d1a94a200081565b3480156108e457600080fd5b5061040e61010d5481565b3480156108fb57600080fd5b5061040e61090a36600461529e565b612db9565b34801561091b57600080fd5b506103e7612e43565b34801561093057600080fd5b506103e761093f36600461529e565b612e57565b34801561095057600080fd5b506103e7612f56565b34801561096557600080fd5b506103e7610974366004615516565b612fcd565b34801561098557600080fd5b50609b546001600160a01b0316610532565b3480156109a357600080fd5b5061010454610532906001600160a01b031681565b3480156109c457600080fd5b5061010554610532906001600160a01b031681565b3480156109e557600080fd5b506104a56109f436600461529e565b61303c565b348015610a0557600080fd5b506104a5610a14366004615516565b61309d565b348015610a2557600080fd5b5061040e64e8d4a5100081565b610a45610a40366004615653565b6130ce565b60405161041891906157bf565b348015610a5e57600080fd5b5061040e62278d0081565b348015610a7557600080fd5b506103e7610a8436600461529e565b61321a565b348015610a9557600080fd5b5061010754610532906001600160a01b031681565b348015610ab657600080fd5b5061010854610532906001600160a01b031681565b348015610ad757600080fd5b5061040e6201518081565b348015610aee57600080fd5b506103e7610afd366004615824565b613298565b348015610b0e57600080fd5b5061040e61010e5481565b348015610b2557600080fd5b5061010954610b3b90600160a01b900460ff1681565b6040519015158152602001610418565b348015610b5757600080fd5b5061040e610b66366004615516565b6133f3565b348015610b7757600080fd5b506103e7610b86366004615516565b61368c565b348015610b9757600080fd5b506103e7610ba636600461529e565b6136ec565b348015610bb757600080fd5b506103e7610bc636600461529e565b61376a565b348015610bd757600080fd5b506103e76137bd565b348015610bec57600080fd5b506103e7610bfb366004615864565b6137f2565b348015610c0c57600080fd5b5060cd546001600160a01b0316610532565b348015610c2a57600080fd5b506103e7610c39366004615243565b6138e1565b348015610c4a57600080fd5b506103e7610c5936600461529e565b613a2b565b348015610c6a57600080fd5b5061010654610532906001600160a01b031681565b348015610c8b57600080fd5b5061010954610532906001600160a01b031681565b348015610cac57600080fd5b506104a5610cbb36600461589b565b613a9c565b348015610ccc57600080fd5b5061040e61010c5481565b6000610ce1613bfe565b6001600160a01b038216301480610cff57506001600160a01b038216155b15610d1d57604051631964c57360e11b815260040160405180910390fd5b60008381526101016020526040902060048101546001600160a01b03163314610d59576040516330cd747160e01b815260040160405180910390fd5b610d64818585613c57565b600582015460008181526101006020908152604080832060018101548251630a81a92360e31b81529251969850949590946001600160a01b03169263540d491892600480820193918290030181865afa158015610dc5573d6000803e3d6000fd5b505050506040513d601f19601f82011682018060405250810190610de991906158c7565b90506001600160a01b03811615801590610e0e575061010954600160a01b900460ff16155b15610f0e578354600090610e3190600160801b90046001600160801b03166158fa565b6001860154604051638910faf160e01b8152600282810b6004830152630100000090920490910b6024820152600f82900b60448201529091506001600160a01b03831690638910faf190606401600060405180830381600087803b158015610e9857600080fd5b505af1158015610eac573d6000803e3d6000fd5b50505050600185015460408051600f84900b8152600283810b6020830152630100000090930490920b908201528890859033907fee8f6362d59839b4b3c990d7e085a63a0fe2c58f4eff4a9a2b6de93a4c645ae39060600160405180910390a4505b83546004830180546001600160801b0390921691600090610f30908490615920565b90915550508354600583018054600160801b9092046001600160801b031691600090610f5d908490615920565b909155505060008781526101016020526040812081815560018101805465ffffffffffff1916905560028101829055600381018290556004810180546001600160a01b03191690556005810182905560060155610fba3388613f5c565b610109546001600160a01b031615611039576101095460405163622cd4e160e11b815233600482015260248101899052604481018590526001600160a01b039091169063c459a9c290606401600060405180830381600087803b15801561102057600080fd5b505af1158015611034573d6000803e3d6000fd5b505050505b61010754604051632142170760e11b81523060048201526001600160a01b038881166024830152604482018a9052909116906342842e0e90606401600060405180830381600087803b15801561108e57600080fd5b505af11580156110a2573d6000803e3d6000fd5b50506040516001600160a01b038916815289925085915033907ff341246adaac6f497bc2a656f546ab9e182111d630394f0c57c710a59a2cb5679060200160405180910390a4505050506110f66001600055565b92915050565b611104613f88565b610109805460ff60a01b1916600160a01b8315158102919091179182905560405160ff9190920416151581527fc749456be5379ac4cfc1f856208b32ddcf01b9db3ce6c37784ad91a8390ae9a8906020015b60405180910390a150565b60008061116c613bfe565b825160009081526101016020526040902060048101546001600160a01b031633146111aa576040516330cd747160e01b815260040160405180910390fd5b6101075460408051630624e65f60e11b81528651600482015260208701516001600160801b0316602482015290860151604482015260608601516064820152608086015160848201526001600160a01b0390911690630c49ccbe9060a40160408051808303816000875af1158015611226573d6000803e3d6000fd5b505050506040513d601f19601f8201168201806040525081019061124a9190615933565b8551919450925061125e9082906000613c57565b5061126f8185600001516000613fe2565b5061127a6001600055565b915091565b610106546001600160a01b031633146112ce5760405162461bcd60e51b815260206004820152600c60248201526b2737ba103932b1b2b4bb32b960a11b60448201526064015b60405180910390fd5b61010654610104546112ee916001600160a01b03918216911630866143d2565b61011180548401905580156113055761130561443d565b6101105462015180831080159061131f575062278d008311155b156113275750815b4260006113348383615957565b90506000808790508361010d5411156113d057600064e8d4a5100061010e548661010d546113629190615920565b61136c919061596a565b6113769190615981565b61010b5461010d5460408051918252602082018990528101839052919250907f317bea91082b2a8d33761ba0bdd38a785d60acc1b964e3ead01706baaebf548b9060600160405180910390a26113cc8183615957565b9150505b846113e064e8d4a510008361596a565b6113ea9190615981565b61010b805460019081019182905586810161010c5561010d86905561010e839055919350907f44521c2bbb0ee364592908d6177ce446d5554c5a6c4ebd12adf86912c617a78b9061143c908790615957565b604080519182526020820187905281018590526060810184905260800160405180910390a25050505050505050565b600080611476613bfe565b83516000908152610101602090815260409182902082516101208101845281546001600160801b038082168352600160801b90910416928101929092526001810154600281810b9484019490945263010000009004830b6060830152918201546080820152600382015460a082015260048201546001600160a01b031660c08201819052600583015460e0830152600690920154610100820152903314611530576040516330cd747160e01b815260040160405180910390fd5b60208501516001600160a01b0316611549573060208601525b6101075460405163fc6f786560e01b81526001600160a01b039091169063fc6f78659061157a9088906004016159a3565b60408051808303816000875af1158015611598573d6000803e3d6000fd5b505050506040513d601f19601f820116820180604052508101906115bc9190615933565b60208701519194509250306001600160a01b039091160361167b5760e08181015160009081526101006020908152604091829020825193840183528054845260018101546001600160a01b0390811692850192909252600281015482169284019290925260038201548082166060850152600160a01b900462ffffff166080840152600482015460a084015260059091015460c0830152851661165d573394505b61166b8160400151866145ae565b6116798160600151866145ae565b505b506116866001600055565b9250929050565b6000611697613bfe565b610107546001600160a01b031633146116c357604051630bf3405760e01b815260040160405180910390fd5b6040805160c081018252600080825260208201819052818301819052606082018190526080820181905260a082015261010754915163133f757160e31b81526004810187905290916001600160a01b0316906399fbab889060240161018060405180830381865afa15801561173c573d6000803e3d6000fd5b505050506040513d601f19601f820116820180604052508101906117609190615a16565b505050506001600160801b031660a08901819052600291820b60808a015291900b606088015262ffffff9190911660408701526001600160a01b0391821660208701529116845260000391506117cb905057604051636180f03f60e11b815260040160405180910390fd5b80516001600160a01b039081166000908152610102602090815260408083208286015190941683529281528282208385015162ffffff1683529052908120549081900361182b5760405163079f151f60e11b815260040160405180910390fd5b600081815261010060209081526040808320815160e0810183528154815260018201546001600160a01b03908116828601819052600284015482168386015260038401549182166060840152600160a01b90910462ffffff16608083015260048084015460a084015260059093015460c08301528351630a81a92360e31b81529351919594909363540d49189381810193918290030181865afa1580156118d6573d6000803e3d6000fd5b505050506040513d601f19601f820116820180604052508101906118fa91906158c7565b90506001600160a01b0381166119235760405163ef3d9b2160e01b815260040160405180910390fd5b60008881526101016020526040908190206060860151600182018054608089015162ffffff90811663010000000265ffffffffffff19909216931692909217919091179055600480820180546001600160a01b03808f166001600160a01b0319909216919091179091556005830187905592516310a537f160e11b8152919284169163214a6fe2916119c39142910163ffffffff91909116815260200190565b600060405180830381600087803b1580156119dd57600080fd5b505af11580156119f1573d6000803e3d6000fd5b50505050611a01818a6000613fe2565b60608501516080860151604051633816bae960e11b8152600292830b6004820152910b60248201526001600160a01b0383169063702d75d290604401602060405180830381865afa158015611a5a573d6000803e3d6000fd5b505050506040513d601f19601f82011682018060405250810190611a7e9190615af8565b6002820155611ad68a8a6001600160a01b039190911660008181526001602081815260408084208054600284528286208187528452828620889055968552600383529084209590955592909152908190528154019055565b60a08501516060808701516080880151604080516001600160801b039095168552600292830b6020860152910b908301528a9186916001600160a01b038e16917fb19157bff94fdd40c58c7d4a5d52e8eb8c2d570ca17b322b49a2bbbeedc82fbf910160405180910390a450630a85bd0160e11b945050505050611b5a6001600055565b95945050505050565b6000611b6d613bfe565b60008381526101016020526040902060048101546001600160a01b03163314611ba9576040516330cd747160e01b815260040160405180910390fd5b80546001600160801b0316158015611bc357506003810154155b15611be157604051636180f03f60e11b815260040160405180910390fd5b611bec818585613c57565b9150506110f66001600055565b611c01613f88565b8015611c0f57611c0f61443d565b61010854604051634c96a38960e01b81526001600160a01b0384811660048301526000921690634c96a389906024016020604051808303816000875af1158015611c5d573d6000803e3d6000fd5b505050506040513d601f19601f82011682018060405250810190611c8191906158c7565b90508361010a6000828254611c969190615957565b925050819055506000836001600160a01b0316630dfe16816040518163ffffffff1660e01b8152600401602060405180830381865afa158015611cdd573d6000803e3d6000fd5b505050506040513d601f19601f82011682018060405250810190611d0191906158c7565b90506000846001600160a01b031663d21220a76040518163ffffffff1660e01b8152600401602060405180830381865afa158015611d43573d6000803e3d6000fd5b505050506040513d601f19601f82011682018060405250810190611d6791906158c7565b90506000856001600160a01b031663ddca3f436040518163ffffffff1660e01b8152600401602060405180830381865afa158015611da9573d6000803e3d6000fd5b505050506040513d601f19601f82011682018060405250810190611dcd9190615b11565b6001600160a01b03808516600090815261010260209081526040808320938716835292815282822062ffffff851683529052205490915015611e5b576001600160a01b03838116600090815261010260209081526040808320938616835292815282822062ffffff851683529052819020549051637d38f65f60e01b815260048101919091526024016112c5565b61010754604051636eb1769f60e11b81523060048201526001600160a01b0391821660248201529084169063dd62ed3e90604401602060405180830381865afa158015611eac573d6000803e3d6000fd5b505050506040513d601f19601f82011682018060405250810190611ed09190615af8565b600003611ef45761010754611ef4906001600160a01b0385811691166000196146e9565b61010754604051636eb1769f60e11b81523060048201526001600160a01b0391821660248201529083169063dd62ed3e90604401602060405180830381865afa158015611f45573d6000803e3d6000fd5b505050506040513d601f19601f82011682018060405250810190611f699190615af8565b600003611f8d5761010754611f8d906001600160a01b0384811691166000196146e9565b60ff600081548092919060010191905055506040518060e00160405280888152602001876001600160a01b03168152602001846001600160a01b03168152602001836001600160a01b031681526020018262ffffff168152602001600081526020016000815250610100600060ff5481526020019081526020016000206000820151816000015560208201518160010160006101000a8154816001600160a01b0302191690836001600160a01b0316021790555060408201518160020160006101000a8154816001600160a01b0302191690836001600160a01b0316021790555060608201518160030160006101000a8154816001600160a01b0302191690836001600160a01b0316021790555060808201518160030160146101000a81548162ffffff021916908362ffffff16021790555060a0820151816004015560c0820151816005015590505060ff546101026000856001600160a01b03166001600160a01b031681526020019081526020016000206000846001600160a01b03166001600160a01b0316815260200190815260200160002060008362ffffff1662ffffff1681526020019081526020016000208190555060ff546101036000886001600160a01b03166001600160a01b0316815260200190815260200160002081905550836001600160a01b0316866001600160a01b031660ff547f0621c8de33a230aec1aee0d4f7b6c81d97bd3ce0a2040ca33fbd668e521ecafe8a6040516121b791815260200190565b60405180910390a450505050505050565b60008060006121d5613bfe565b8351600090815261010160205260408120600581015490910361220b5760405163079f151f60e11b815260040160405180910390fd5b60058181015460009081526101006020908152604091829020825160e0810184528154815260018201546001600160a01b03908116828501526002830154811694820185905260038301549081166060830152600160a01b900462ffffff166080820152600482015460a082015293015460c084015287015161228e91906147fe565b6122a0816060015187604001516147fe565b6101055460408201516001600160a01b039081169116148015906122d857506101055460608201516001600160a01b03908116911614155b80156122e45750600034115b156122ee57600080fd5b610107546040805163219f5d1760e01b81528851600482015260208901516024820152908801516044820152606088015160648201526080880151608482015260a088015160a48201526001600160a01b039091169063219f5d1790349060c40160606040518083038185885af115801561236d573d6000803e3d6000fd5b50505050506040513d601f19601f820116820180604052508101906123929190615b2c565b602089015192975090955093506000906123ad908690615920565b905060008488604001516123c19190615920565b905081156123d7576123d7836040015183614856565b80156123eb576123eb836060015182614856565b6123fb8489600001516000613c57565b5061240c8489600001516000613fe2565b5050505061241a6001600055565b9193909250565b6001600160a01b03821660009081526001602052604081205482106124965760405162461bcd60e51b815260206004820152602560248201527f456e756d657261626c653a206f776e657220696e646578206f7574206f6620626044820152646f756e647360d81b60648201526084016112c5565b506001600160a01b03919091166000908152600260209081526040808320938352929052205490565b6001600160a01b037f00000000000000000000000000000000000000000000000000000000000000001630036125075760405162461bcd60e51b81526004016112c590615b63565b7f00000000000000000000000000000000000000000000000000000000000000006001600160a01b0316612550600080516020615dbb833981519152546001600160a01b031690565b6001600160a01b0316146125765760405162461bcd60e51b81526004016112c590615baf565b61257f81614900565b6040805160008082526020820190925261259b91839190614908565b50565b6125a6613bfe565b6000818152610101602090815260409182902082516101208101845281546001600160801b038082168352600160801b90910416928101929092526001810154600281810b9484019490945263010000009004830b6060830152918201546080820152600382015460a082015260048201546001600160a01b031660c08201819052600583015460e083015260069092015461010082015290331461265e576040516330cd747160e01b815260040160405180910390fd5b60008160a00151118061267a575080516001600160801b031615155b15612698576040516332e7879360e01b815260040160405180910390fd5b60008281526101016020526040812081815560018101805465ffffffffffff1916905560028101829055600381018290556004810180546001600160a01b031916905560058101829055600601556126f03383613f5c565b610109546001600160a01b031615612775576101095460e082015160405163622cd4e160e11b81523360048201526024810185905260448101919091526001600160a01b039091169063c459a9c290606401600060405180830381600087803b15801561275c57600080fd5b505af1158015612770573d6000803e3d6000fd5b505050505b61010754604051630852cd8d60e31b8152600481018490526001600160a01b03909116906342966c6890602401600060405180830381600087803b1580156127bc57600080fd5b505af11580156127d0573d6000803e3d6000fd5b50505060e08201516040516000815284925033907ff341246adaac6f497bc2a656f546ab9e182111d630394f0c57c710a59a2cb5679060200160405180910390a45061259b6001600055565b61010f546001600160a01b031633148015906128435750609b546001600160a01b03163314155b1561286157604051634c7bb68760e11b815260040160405180910390fd5b4260005b828110156129ef576000610100600086868581811061288657612886615bfb565b602090810292909201358352508181019290925260409081016000908120825160e0810184528154815260018201546001600160a01b03908116828701819052600284015482168387015260038401549182166060840152600160a01b90910462ffffff16608083015260048084015460a084015260059093015460c08301528451630a81a92360e31b815294519196509294929363540d491893818401939092918290030181865afa158015612941573d6000803e3d6000fd5b505050506040513d601f19601f8201168201806040525081019061296591906158c7565b82519091501580159061298057506001600160a01b03811615155b156129e5576040516310a537f160e11b815263ffffffff851660048201526001600160a01b0382169063214a6fe290602401600060405180830381600087803b1580156129cc57600080fd5b505af11580156129e0573d6000803e3d6000fd5b505050505b5050600101612865565b50505050565b6001600160a01b037f0000000000000000000000000000000000000000000000000000000000000000163003612a3d5760405162461bcd60e51b81526004016112c590615b63565b7f00000000000000000000000000000000000000000000000000000000000000006001600160a01b0316612a86600080516020615dbb833981519152546001600160a01b031690565b6001600160a01b031614612aac5760405162461bcd60e51b81526004016112c590615baf565b612ab582614900565b612ac182826001614908565b5050565b6000306001600160a01b037f00000000000000000000000000000000000000000000000000000000000000001614612b655760405162461bcd60e51b815260206004820152603860248201527f555550535570677261646561626c653a206d757374206e6f742062652063616c60448201527f6c6564207468726f7567682064656c656761746563616c6c000000000000000060648201526084016112c5565b50600080516020615dbb83398151915290565b612b80613f88565b82801580612b8f575060ff5481115b15612bad576040516387e8068360e01b815260040160405180910390fd5b60008481526101006020908152604080832060018101548251630a81a92360e31b815292514295929492936001600160a01b039092169263540d491892600480820193918290030181865afa158015612c0a573d6000803e3d6000fd5b505050506040513d601f19601f82011682018060405250810190612c2e91906158c7565b90506001600160a01b03811615612c9f576040516310a537f160e11b815263ffffffff841660048201526001600160a01b0382169063214a6fe290602401600060405180830381600087803b158015612c8657600080fd5b505af1158015612c9a573d6000803e3d6000fd5b505050505b8415612cad57612cad61443d565b815461010a548791612cbe91615920565b612cc89190615957565b61010a5585825560405186815287907fc0cfd54d2de2b55f1e6e108d3ec53ff0a1abe6055401d32c61e9433b747ef9f89060200160405180910390a250505050505050565b610109546001600160a01b03163314612d685760405162461bcd60e51b815260206004820152601760248201527f4e6f74206661726d20626f6f737420636f6e747261637400000000000000000060448201526064016112c5565b6000828152610101602052604081206005810154909103612d9c5760405163079f151f60e11b815260040160405180910390fd5b612da881846000613c57565b50612db4818484613fe2565b505050565b60006001600160a01b038216612e275760405162461bcd60e51b815260206004820152602d60248201527f456e756d657261626c653a2061646472657373207a65726f206973206e6f742060448201526c30903b30b634b21037bbb732b960991b60648201526084016112c5565b506001600160a01b031660009081526001602052604090205490565b612e4b613f88565b612e556000614a73565b565b612e5f613f88565b6001600160a01b038116612e865760405163d92e233d60e01b815260040160405180910390fd5b61010454604051636eb1769f60e11b81526001600160a01b03838116600483015230602483015260001992169063dd62ed3e90604401602060405180830381865afa158015612ed9573d6000803e3d6000fd5b505050506040513d601f19601f82011682018060405250810190612efd9190615af8565b14612f0757600080fd5b61010680546001600160a01b0319166001600160a01b0383169081179091556040519081527f4a2963bfc20b87a0c055468a66e6638d57725e93fb4d65733fb2f25587ae8c4f90602001611156565b60cd5433906001600160a01b03168114612fc45760405162461bcd60e51b815260206004820152602960248201527f4f776e61626c6532537465703a2063616c6c6572206973206e6f7420746865206044820152683732bb9037bbb732b960b91b60648201526084016112c5565b61259b81614a73565b612fd5613f88565b62015180811080612fe8575062278d0081115b1561300657604051634f08daf360e11b815260040160405180910390fd5b6101108190556040518181527fb5521c8a03b484502769158d9dd83186bd0748f3ece2fbf358233994c2a2097690602001611156565b600080600061010a5411156130925761010a546001600160a01b03841660009081526101036020908152604080832054835261010090915290205461010e54613085919061596a565b61308f9190615981565b91505b61010d549050915091565b600080600061010a5411156130925761010a546000848152610100602052604090205461010e54613085919061596a565b6060816001600160401b038111156130e8576130e86152bb565b60405190808252806020026020018201604052801561311b57816020015b60608152602001906001900390816131065790505b50905060005b82811015613213576000803086868581811061313f5761313f615bfb565b90506020028101906131519190615c11565b60405161315f929190615c57565b600060405180830381855af49150503d806000811461319a576040519150601f19603f3d011682016040523d82523d6000602084013e61319f565b606091505b5091509150816131eb576044815110156131b857600080fd5b600481019050808060200190518101906131d29190615c67565b60405162461bcd60e51b81526004016112c59190615cd4565b808484815181106131fe576131fe615bfb565b60209081029190910101525050600101613121565b5092915050565b613222613f88565b6001600160a01b0381166132495760405163d92e233d60e01b815260040160405180910390fd5b61010f80546001600160a01b0319166001600160a01b0383169081179091556040519081527fc47d127c07bdd56c5ccba00463ce3bd3c1bca71b4670eea6e5d0c02e4aa156e290602001611156565b600454610100900460ff16158080156132b85750600454600160ff909116105b806132d25750303b1580156132d2575060045460ff166001145b6133355760405162461bcd60e51b815260206004820152602e60248201527f496e697469616c697a61626c653a20636f6e747261637420697320616c72656160448201526d191e481a5b9a5d1a585b1a5e995960921b60648201526084016112c5565b6004805460ff191660011790558015613358576004805461ff0019166101001790555b61010480546001600160a01b038087166001600160a01b03199283161790925561010780548684169083161790556101058054928516929091169190911790556133a0614a8c565b6133a8614ab3565b80156129ef576004805461ff0019169055604051600181527f7f26b83ff96e1f2b6a682f133852f6798a09c465da95921460cefb38474024989060200160405180910390a150505050565b60008181526101016020908152604080832081516101208101835281546001600160801b038082168352600160801b90910416938101939093526001810154600281810b9385019390935263010000009004820b6060840152908101546080830152600381015460a083015260048101546001600160a01b031660c0830152600581015460e08301819052600690910154610100830152156136865760e081810151600090815261010060209081526040808320815194850182528054855260018101546001600160a01b03908116868501819052600283015482168785015260038301549182166060880152600160a01b90910462ffffff16608087015260048083015460a088015260059092015460c08701528251630a81a92360e31b81529251909363540d49189380840193919291908290030181865afa15801561353f573d6000803e3d6000fd5b505050506040513d601f19601f8201168201806040525081019061356391906158c7565b90506001600160a01b038116156136725760408381015160608501519151633816bae960e11b8152600291820b600482015291900b60248201526000906001600160a01b0383169063702d75d290604401602060405180830381865afa1580156135d1573d6000803e3d6000fd5b505050506040513d601f19601f820116820180604052508101906135f59190615af8565b9050836080015181118015613631575083602001516001600160801b03168460800151826136239190615920565b61362f90600019615981565b115b1561367057600160801b84602001516001600160801b03168560800151836136599190615920565b613663919061596a565b61366d9190615981565b94505b505b60a08301516136819085615957565b935050505b50919050565b613694613bfe565b60008181526101016020526040812060058101549091036136c85760405163079f151f60e11b815260040160405180910390fd5b6136d481836000613c57565b506136e181836000613fe2565b5061259b6001600055565b6136f4613f88565b6001600160a01b03811661371b5760405163d92e233d60e01b815260040160405180910390fd5b61010880546001600160a01b0319166001600160a01b0383169081179091556040519081527f29e3e57b4a1e4513d009781598c7e4b8b2a68e4b71fe977e362d1b591016fade90602001611156565b613772613f88565b61010980546001600160a01b0319166001600160a01b0383169081179091556040517ff32244aa081c72b930bb47bb702115e112d779ed353d6b1a70b28babc9822b7a90600090a250565b6137c5613f88565b612e556137da609b546001600160a01b031690565b61011154610104546001600160a01b03169190614ae2565b6137fa613bfe565b6040516370a0823160e01b81523060048201526000906001600160a01b038516906370a0823190602401602060405180830381865afa158015613841573d6000803e3d6000fd5b505050506040513d601f19601f820116820180604052508101906138659190615af8565b610104549091506001600160a01b039081169085160361389b576101115481106138945761011154900361389b565b6101115560005b828110156138bc57604051632ca2f52b60e11b815260040160405180910390fd5b80156138d6576138d66001600160a01b0385168383614ae2565b50612db46001600055565b6138e9613bfe565b610105546040516370a0823160e01b81523060048201526000916001600160a01b0316906370a0823190602401602060405180830381865afa158015613933573d6000803e3d6000fd5b505050506040513d601f19601f820116820180604052508101906139579190615af8565b61010454610105549192506001600160a01b039081169116036139905761011154811061398957610111549003613990565b6101115560005b828110156139b157604051632ca2f52b60e11b815260040160405180910390fd5b8015613a205761010554604051632e1a7d4d60e01b8152600481018390526001600160a01b0390911690632e1a7d4d90602401600060405180830381600087803b1580156139fe57600080fd5b505af1158015613a12573d6000803e3d6000fd5b50505050613a208282614b12565b50612ac16001600055565b613a33613f88565b60cd80546001600160a01b0383166001600160a01b03199091168117909155613a64609b546001600160a01b031690565b6001600160a01b03167f38d16b8cac22d99fc7c124b9cd0de2d3fa1faef420bfe791d8c362d765e2270060405160405180910390a350565b600080613aa7613bfe565b82516000908152610101602090815260409182902082516101208101845281546001600160801b038082168352600160801b90910416928101929092526001810154600281810b9484019490945263010000009004830b6060830152918201546080820152600382015460a082015260048201546001600160a01b031660c08201819052600583015460e0830152600690920154610100820152903314613b61576040516330cd747160e01b815260040160405180910390fd5b60208401516001600160a01b0316613b7a573060208501525b6101075460405163fc6f786560e01b81526001600160a01b039091169063fc6f786590613bab9087906004016159a3565b60408051808303816000875af1158015613bc9573d6000803e3d6000fd5b505050506040513d601f19601f82011682018060405250810190613bed9190615933565b909350915061127a90506001600055565b600260005403613c505760405162461bcd60e51b815260206004820152601f60248201527f5265656e7472616e637947756172643a207265656e7472616e742063616c6c0060448201526064016112c5565b6002600055565b600583810154600090815261010060209081526040808320815160e0810183528154815260018201546001600160a01b03908116828601819052600284015482168386015260038401549182166060840152600160a01b90910462ffffff16608083015260048084015460a0840152929096015460c08201528251630a81a92360e31b81529251949590948694919363540d4918938181019392918290030181865afa158015613d0b573d6000803e3d6000fd5b505050506040513d601f19601f82011682018060405250810190613d2f91906158c7565b90506001600160a01b03811615801590613d54575061010954600160a01b900460ff16155b15613ec3576040516310a537f160e11b815263ffffffff421660048201526001600160a01b0382169063214a6fe290602401600060405180830381600087803b158015613da057600080fd5b505af1158015613db4573d6000803e3d6000fd5b505050506001860154604051633816bae960e11b8152600282810b6004830152630100000090920490910b60248201526000906001600160a01b0383169063702d75d290604401602060405180830381865afa158015613e18573d6000803e3d6000fd5b505050506040513d601f19601f82011682018060405250810190613e3c9190615af8565b9050866002015481118015613e7d575086546002880154600160801b9091046001600160801b031690613e6f9083615920565b613e7b90600019615981565b115b15613ebd5786546002880154600160801b918290046001600160801b031690613ea69084615920565b613eb0919061596a565b613eba9190615981565b93505b60028701555b6003860154613ed29084615957565b92508215613f53576001600160a01b03841615613f4b5760006003870155613efa8484614b72565b6005860154604080516001600160a01b03871681526020810186905287929133917fd25759d838eb0a46600f8f327cce144e61d7caefbef27010fe31e2aab091704f910160405180910390a4613f53565b600386018390555b50509392505050565b613f668282614c2d565b506001600160a01b031660009081526001602052604090208054600019019055565b609b546001600160a01b03163314612e555760405162461bcd60e51b815260206004820181905260248201527f4f776e61626c653a2063616c6c6572206973206e6f7420746865206f776e657260448201526064016112c5565b6101075460405163133f757160e31b815260048101849052600091829182916001600160a01b0316906399fbab889060240161018060405180830381865afa158015614032573d6000803e3d6000fd5b505050506040513d601f19601f820116820180604052508101906140569190615a16565b5050505060058e01546000908152610100602052604090208e54939b50919950975095506001600160801b0380881691161493506140e39250505057865460048201546001600160801b03808516926140b192911690615920565b6140bb9190615957565b600482015586546fffffffffffffffffffffffffffffffff19166001600160801b0383161787555b6101095464e8d4a51000906001600160a01b031615801590614103575085155b1561417f5761010954604051632273df8360e11b8152600481018990526001600160a01b03909116906344e7bf06906024016020604051808303816000875af1158015614154573d6000803e3d6000fd5b505050506040513d601f19601f820116820180604052508101906141789190615af8565b9050614188565b85156141885750845b64e8d4a510008110156141a1575064e8d4a510006141b8565b6501d1a94a20008111156141b857506501d1a94a20005b6006880181905560006141ec64e8d4a510006141dd846001600160801b03881661596a565b6141e79190615981565b614d39565b895490915060009061420e90600160801b90046001600160801b031683615ce7565b905080600f0b6000146143c657895460058501546001600160801b038085169261424392600160801b90910490911690615920565b61424d9190615957565b600585015589546001600160801b03808416600160801b029116178a55600184015460408051630a81a92360e31b815290516000926001600160a01b03169163540d49189160048083019260209291908290030181865afa1580156142b6573d6000803e3d6000fd5b505050506040513d601f19601f820116820180604052508101906142da91906158c7565b90506001600160a01b0381166143035760405163ef3d9b2160e01b815260040160405180910390fd5b604051638910faf160e01b8152600289810b600483015288900b6024820152600f83900b60448201526001600160a01b03821690638910faf190606401600060405180830381600087803b15801561435a57600080fd5b505af115801561436e573d6000803e3d6000fd5b5050505060058b015460408051600f85900b815260028b810b60208301528a900b8183015290518c929133917fee8f6362d59839b4b3c990d7e085a63a0fe2c58f4eff4a9a2b6de93a4c645ae39181900360600190a4505b50505050505050505050565b6040516001600160a01b03808516602483015283166044820152606481018290526129ef9085906323b872dd60e01b906084015b60408051601f198184030181529190526020810180516001600160e01b03166001600160e01b031990931692909217909152614da2565b4260015b60ff548111612ac157600081815261010060209081526040808320815160e0810183528154815260018201546001600160a01b03908116828601819052600284015482168386015260038401549182166060840152600160a01b90910462ffffff16608083015260048084015460a084015260059093015460c08301528351630a81a92360e31b81529351919594909363540d49189381810193918290030181865afa1580156144f5573d6000803e3d6000fd5b505050506040513d601f19601f8201168201806040525081019061451991906158c7565b82519091501580159061453457506001600160a01b03811615155b15614599576040516310a537f160e11b815263ffffffff851660048201526001600160a01b0382169063214a6fe290602401600060405180830381600087803b15801561458057600080fd5b505af1158015614594573d6000803e3d6000fd5b505050505b505080806145a690615d1d565b915050614441565b6040516370a0823160e01b81523060048201526000906001600160a01b038416906370a0823190602401602060405180830381865afa1580156145f5573d6000803e3d6000fd5b505050506040513d601f19601f820116820180604052508101906146199190615af8565b610104549091506001600160a01b039081169084160361464f576101115481106146485761011154900361464f565b6101115560005b8015612db457610105546001600160a01b03908116908416036146d55761010554604051632e1a7d4d60e01b8152600481018390526001600160a01b0390911690632e1a7d4d90602401600060405180830381600087803b1580156146b357600080fd5b505af11580156146c7573d6000803e3d6000fd5b50505050612db48282614b12565b612db46001600160a01b0384168383614ae2565b8015806147635750604051636eb1769f60e11b81523060048201526001600160a01b03838116602483015284169063dd62ed3e90604401602060405180830381865afa15801561473d573d6000803e3d6000fd5b505050506040513d601f19601f820116820180604052508101906147619190615af8565b155b6147ce5760405162461bcd60e51b815260206004820152603660248201527f5361666545524332303a20617070726f76652066726f6d206e6f6e2d7a65726f60448201527520746f206e6f6e2d7a65726f20616c6c6f77616e636560501b60648201526084016112c5565b6040516001600160a01b038316602482015260448101829052612db490849063095ea7b360e01b90606401614406565b610105546001600160a01b03838116911614801561481c5750600034115b1561484157803414612ac157604051634b508fef60e01b815260040160405180910390fd5b612ac16001600160a01b0383163330846143d2565b610105546001600160a01b0383811691161480156148745750600034115b156148ec5761010760009054906101000a90046001600160a01b03166001600160a01b0316631f9709826040518163ffffffff1660e01b8152600401600060405180830381600087803b1580156148ca57600080fd5b505af11580156148de573d6000803e3d6000fd5b50505050612ac13347614b12565b612ac16001600160a01b0383163383614ae2565b61259b613f88565b7f4910fdfa16fed3260ed0e7147f7cc6da11a60208b5b9406d12a635614ffd91435460ff161561493b57612db483614e77565b826001600160a01b03166352d1902d6040518163ffffffff1660e01b8152600401602060405180830381865afa925050508015614995575060408051601f3d908101601f1916820190925261499291810190615af8565b60015b6149f85760405162461bcd60e51b815260206004820152602e60248201527f45524331393637557067726164653a206e657720696d706c656d656e7461746960448201526d6f6e206973206e6f74205555505360901b60648201526084016112c5565b600080516020615dbb8339815191528114614a675760405162461bcd60e51b815260206004820152602960248201527f45524331393637557067726164653a20756e737570706f727465642070726f786044820152681a58589b195555525160ba1b60648201526084016112c5565b50612db4838383614f13565b60cd80546001600160a01b031916905561259b81614f38565b600454610100900460ff16612e555760405162461bcd60e51b81526004016112c590615d36565b600454610100900460ff16614ada5760405162461bcd60e51b81526004016112c590615d36565b612e55614f8a565b6040516001600160a01b038316602482015260448101829052612db490849063a9059cbb60e01b90606401614406565b6000826001600160a01b03168260405160006040518083038185875af1925050503d8060008114614b5f576040519150601f19603f3d011682016040523d82523d6000602084013e614b64565b606091505b5050905080612db457600080fd5b8015612ac157610104546040516370a0823160e01b81523060048201526000916001600160a01b0316906370a0823190602401602060405180830381865afa158015614bc2573d6000803e3d6000fd5b505050506040513d601f19601f82011682018060405250810190614be69190615af8565b905081811015614bf4578091505b816101115410614c0d5761011180548390039055614c15565b818103610111555b61010454612db4906001600160a01b03168484614ae2565b6001600160a01b0382166000908152600160208190526040822054614c529190615920565b6000838152600360209081526040808320546001600160a01b03881684526002835281842081855290925290912054919250908314614cc55760405162461bcd60e51b815260206004820152600f60248201526e125b9d985b1a59081d1bdad95b9259608a1b60448201526064016112c5565b818114614d06576001600160a01b03841660009081526002602090815260408083208584528252808320548484528184208190558352600390915290208190555b5060009182526003602090815260408084208490556001600160a01b039094168352600281528383209183525290812055565b6000600160801b8210614d9e5760405162461bcd60e51b815260206004820152602760248201527f53616665436173743a2076616c756520646f65736e27742066697420696e20316044820152663238206269747360c81b60648201526084016112c5565b5090565b6000614df7826040518060400160405280602081526020017f5361666545524332303a206c6f772d6c6576656c2063616c6c206661696c6564815250856001600160a01b0316614fba9092919063ffffffff16565b9050805160001480614e18575080806020019051810190614e189190615d81565b612db45760405162461bcd60e51b815260206004820152602a60248201527f5361666545524332303a204552433230206f7065726174696f6e20646964206e6044820152691bdd081cdd58d8d9595960b21b60648201526084016112c5565b6001600160a01b0381163b614ee45760405162461bcd60e51b815260206004820152602d60248201527f455243313936373a206e657720696d706c656d656e746174696f6e206973206e60448201526c1bdd08184818dbdb9d1c9858dd609a1b60648201526084016112c5565b600080516020615dbb83398151915280546001600160a01b0319166001600160a01b0392909216919091179055565b614f1c83614fd1565b600082511180614f295750805b15612db4576129ef8383615011565b609b80546001600160a01b038381166001600160a01b0319831681179093556040519116919082907f8be0079c531659141344cd1fd0a4f28419497f9722a3daafe3b4186f6b6457e090600090a35050565b600454610100900460ff16614fb15760405162461bcd60e51b81526004016112c590615d36565b612e5533614a73565b6060614fc9848460008561503d565b949350505050565b614fda81614e77565b6040516001600160a01b038216907fbc7cd75a20ee27fd9adebab32041f755214dbc6bffa90cc0225b39da2e5c2d3b90600090a250565b60606150368383604051806060016040528060278152602001615ddb60279139615118565b9392505050565b60608247101561509e5760405162461bcd60e51b815260206004820152602660248201527f416464726573733a20696e73756666696369656e742062616c616e636520666f6044820152651c8818d85b1b60d21b60648201526084016112c5565b600080866001600160a01b031685876040516150ba9190615d9e565b60006040518083038185875af1925050503d80600081146150f7576040519150601f19603f3d011682016040523d82523d6000602084013e6150fc565b606091505b509150915061510d87838387615190565b979650505050505050565b6060600080856001600160a01b0316856040516151359190615d9e565b600060405180830381855af49150503d8060008114615170576040519150601f19603f3d011682016040523d82523d6000602084013e615175565b606091505b509150915061518686838387615190565b9695505050505050565b606083156151ff5782516000036151f8576001600160a01b0385163b6151f85760405162461bcd60e51b815260206004820152601d60248201527f416464726573733a2063616c6c20746f206e6f6e2d636f6e747261637400000060448201526064016112c5565b5081614fc9565b614fc983838151156152145781518083602001fd5b8060405162461bcd60e51b81526004016112c59190615cd4565b6001600160a01b038116811461259b57600080fd5b6000806040838503121561525657600080fd5b8235915060208301356152688161522e565b809150509250929050565b801515811461259b57600080fd5b60006020828403121561529357600080fd5b813561503681615273565b6000602082840312156152b057600080fd5b81356150368161522e565b634e487b7160e01b600052604160045260246000fd5b604051601f8201601f191681016001600160401b03811182821017156152f9576152f96152bb565b604052919050565b6001600160801b038116811461259b57600080fd5b600060a082840312801561532957600080fd5b5060405160009060a081016001600160401b038111828210171561534f5761534f6152bb565b60405283358152602084013561536481615301565b6020820152604084810135908201526060808501359082015260809384013593810193909352509092915050565b6000806000606084860312156153a757600080fd5b833592506020840135915060408401356153c081615273565b809150509250925092565b6000608082840312156153dd57600080fd5b604051608081016001600160401b03811182821017156153ff576153ff6152bb565b6040528235815290508060208301356154178161522e565b6020820152604083013561542a81615301565b6040820152606083013561543d81615301565b6060919091015292915050565b60008060a0838503121561545d57600080fd5b61546784846153cb565b915060808301356152688161522e565b60008060008060006080868803121561548f57600080fd5b853561549a8161522e565b945060208601356154aa8161522e565b93506040860135925060608601356001600160401b038111156154cc57600080fd5b8601601f810188136154dd57600080fd5b80356001600160401b038111156154f357600080fd5b88602082840101111561550557600080fd5b959894975092955050506020019190565b60006020828403121561552857600080fd5b5035919050565b60008060006060848603121561554457600080fd5b8335925060208401356155568161522e565b915060408401356153c081615273565b600060c082840312801561557957600080fd5b5060405160009060c081016001600160401b038111828210171561559f5761559f6152bb565b604090815284358252602080860135908301528481013590820152606080850135908201526080808501359082015260a09384013593810193909352509092915050565b600080604083850312156155f657600080fd5b82356156018161522e565b946020939093013593505050565b60008083601f84011261562157600080fd5b5081356001600160401b0381111561563857600080fd5b6020830191508360208260051b850101111561168657600080fd5b6000806020838503121561566657600080fd5b82356001600160401b0381111561567c57600080fd5b6156888582860161560f565b90969095509350505050565b60006001600160401b038211156156ad576156ad6152bb565b50601f01601f191660200190565b600080604083850312156156ce57600080fd5b82356156d98161522e565b915060208301356001600160401b038111156156f457600080fd5b8301601f8101851361570557600080fd5b803561571861571382615694565b6152d1565b81815286602083850101111561572d57600080fd5b816020840160208301376000602083830101528093505050509250929050565b6000806040838503121561576057600080fd5b50508035926020909101359150565b60005b8381101561578a578181015183820152602001615772565b50506000910152565b600081518084526157ab81602086016020860161576f565b601f01601f19169290920160200192915050565b6000602082016020835280845180835260408501915060408160051b86010192506020860160005b8281101561581857603f19878603018452615803858351615793565b945060209384019391909101906001016157e7565b50929695505050505050565b60008060006060848603121561583957600080fd5b83356158448161522e565b925060208401356158548161522e565b915060408401356153c08161522e565b60008060006060848603121561587957600080fd5b83356158848161522e565b92506020840135915060408401356153c08161522e565b6000608082840312156158ad57600080fd5b61503683836153cb565b80516158c28161522e565b919050565b6000602082840312156158d957600080fd5b81516150368161522e565b634e487b7160e01b600052601160045260246000fd5b600081600f0b60016001607f1b03198103615917576159176158e4565b60000392915050565b818103818111156110f6576110f66158e4565b6000806040838503121561594657600080fd5b505080516020909101519092909150565b808201808211156110f6576110f66158e4565b80820281158282048414176110f6576110f66158e4565b60008261599e57634e487b7160e01b600052601260045260246000fd5b500490565b815181526020808301516001600160a01b0316908201526040808301516001600160801b0390811691830191909152606092830151169181019190915260800190565b805162ffffff811681146158c257600080fd5b8051600281900b81146158c257600080fd5b80516158c281615301565b6000806000806000806000806000806000806101808d8f031215615a3957600080fd5b8c516bffffffffffffffffffffffff81168114615a5557600080fd5b9b50615a6360208e016158b7565b9a50615a7160408e016158b7565b9950615a7f60608e016158b7565b9850615a8d60808e016159e6565b9750615a9b60a08e016159f9565b9650615aa960c08e016159f9565b9550615ab760e08e01615a0b565b6101008e01516101208f015191965094509250615ad76101408e01615a0b565b9150615ae66101608e01615a0b565b90509295989b509295989b509295989b565b600060208284031215615b0a57600080fd5b5051919050565b600060208284031215615b2357600080fd5b615036826159e6565b600080600060608486031215615b4157600080fd5b8351615b4c81615301565b602085015160409095015190969495509392505050565b6020808252602c908201527f46756e6374696f6e206d7573742062652063616c6c6564207468726f7567682060408201526b19195b1959d85d1958d85b1b60a21b606082015260800190565b6020808252602c908201527f46756e6374696f6e206d7573742062652063616c6c6564207468726f7567682060408201526b6163746976652070726f787960a01b606082015260800190565b634e487b7160e01b600052603260045260246000fd5b6000808335601e19843603018112615c2857600080fd5b8301803591506001600160401b03821115615c4257600080fd5b60200191503681900382131561168657600080fd5b8183823760009101908152919050565b600060208284031215615c7957600080fd5b81516001600160401b03811115615c8f57600080fd5b8201601f81018413615ca057600080fd5b8051615cae61571382615694565b818152856020838501011115615cc357600080fd5b611b5a82602083016020860161576f565b6020815260006150366020830184615793565b600f82810b9082900b036f7fffffffffffffffffffffffffffffff19811260016001607f1b03821317156110f6576110f66158e4565b600060018201615d2f57615d2f6158e4565b5060010190565b6020808252602b908201527f496e697469616c697a61626c653a20636f6e7472616374206973206e6f74206960408201526a6e697469616c697a696e6760a81b606082015260800190565b600060208284031215615d9357600080fd5b815161503681615273565b60008251615db081846020870161576f565b919091019291505056fe360894a13ba1a3210667c828492db98dca3e2076cc3735a920a3ca505d382bbc416464726573733a206c6f772d6c6576656c2064656c65676174652063616c6c206661696c6564a2646970667358221220a1d1ccbb8649d93498bfdf3c3440eef9e639d761394a34c6b957c6ba5ad725b764736f6c634300081c0033",
        "linkReferences": {}
    },
    "methodIdentifiers": {
        "BOOST_PRECISION()": "cc6db2da",
        "FARM_BOOSTER()": "fbc911d0",
        "LMPoolDeployer()": "b4ce1280",
        "MAX_BOOST_PRECISION()": "69b02128",
        "MAX_DURATION()": "b1724b46",
        "MIN_DURATION()": "b6a6d177",
        "PERIOD_DURATION()": "6558954f",
        "PRECISION()": "aaf5eb68",
        "REWARD_TOKEN()": "99248ea7",
        "WIP()": "9ba879cf",
        "acceptOwnership()": "79ba5097",
        "add(uint256,address,bool)": "1eaaa045",
        "balanceOf(address)": "70a08231",
        "burn(uint256)": "42966c68",
        "collect((uint256,address,uint128,uint128))": "fc6f7865",
        "collectTo((uint256,address,uint128,uint128),address)": "0d55f913",
        "decreaseLiquidity((uint256,uint128,uint256,uint256,uint256))": "0c49ccbe",
        "emergency()": "caa6fea4",
        "emergencyWithdraw()": "db2e21bc",
        "getLatestPeriodInfo(address)": "a15ea89f",
        "getLatestPeriodInfoByPid(uint256)": "a80a71bd",
        "harvest(uint256,address)": "18fccc76",
        "increaseLiquidity((uint256,uint256,uint256,uint256,uint256,uint256))": "219f5d17",
        "initialize(address,address,address)": "c0c53b8b",
        "latestPeriodCakePerSecond()": "c4f6a8ce",
        "latestPeriodEndTime()": "6d4cec78",
        "latestPeriodNumber()": "30ec24cc",
        "latestPeriodStartTime()": "fcf0b9d8",
        "multicall(bytes[])": "ac9650d8",
        "nonfungiblePositionManager()": "b44a2722",
        "onERC721Received(address,address,uint256,bytes)": "150b7a02",
        "operatorAddress()": "127effb2",
        "owner()": "8da5cb5b",
        "pendingCake(uint256)": "ce5f39c6",
        "pendingOwner()": "e30c3978",
        "poolInfo(uint256)": "1526fe27",
        "poolLength()": "081e3eda",
        "proxiableUUID()": "52d1902d",
        "receiver()": "f7260d3e",
        "renounceOwnership()": "715018a6",
        "rewardAmountBelongToAlphaHunter()": "0defaff0",
        "set(uint256,uint256,bool)": "64482f79",
        "setEmergency(bool)": "0501d556",
        "setLMPoolDeployer(address)": "cf242849",
        "setOperator(address)": "b3ab15fb",
        "setPeriodDuration(uint256)": "7c2d6e01",
        "setReceiver(address)": "718da7ee",
        "sweepToken(address,uint256,address)": "df2ab5bb",
        "tokenOfOwnerByIndex(address,uint256)": "2f745c59",
        "totalAllocPoint()": "17caf6f1",
        "transferOwnership(address)": "f2fde38b",
        "unwrapWIP9(uint256,address)": "eff7a113",
        "updateBoostMultiplier(uint256,uint256)": "69746a1d",
        "updateFarmBoostContract(address)": "cfb8ccfb",
        "updateLiquidity(uint256)": "ced09112",
        "updatePools(uint256[])": "44780994",
        "upgradeTo(address)": "3659cfe6",
        "upgradeToAndCall(address,bytes)": "4f1ef286",
        "upkeep(uint256,uint256,bool)": "0ce5d4cc",
        "userPositionInfos(uint256)": "3b1acf74",
        "v3PoolAddressPid(address)": "0743384d",
        "withdraw(uint256,address)": "00f714ce"
    },
    "id": 42
}