{
  "abi": [
    {
      "type": "constructor",
      "inputs": [],
      "stateMutability": "nonpayable"
    },
    {
      "type": "function",
      "name": "REWARD_PRECISION",
      "inputs": [],
      "outputs": [
        {
          "name": "",
          "type": "uint256",
          "internalType": "uint256"
        }
      ],
      "stateMutability": "view"
    },
    {
      "type": "function",
      "name": "accumulateReward",
      "inputs": [
        {
          "name": "currTimestamp",
          "type": "uint32",
          "internalType": "uint32"
        }
      ],
      "outputs": [],
      "stateMutability": "nonpayable"
    },
    {
      "type": "function",
      "name": "alphaHunter",
      "inputs": [],
      "outputs": [
        {
          "name": "",
          "type": "address",
          "internalType": "contract IAlphaHunterV3"
        }
      ],
      "stateMutability": "view"
    },
    {
      "type": "function",
      "name": "crossLmTick",
      "inputs": [
        {
          "name": "tick",
          "type": "int24",
          "internalType": "int24"
        },
        {
          "name": "zeroForOne",
          "type": "bool",
          "internalType": "bool"
        }
      ],
      "outputs": [],
      "stateMutability": "nonpayable"
    },
    {
      "type": "function",
      "name": "deployedTimestamp",
      "inputs": [],
      "outputs": [
        {
          "name": "",
          "type": "uint32",
          "internalType": "uint32"
        }
      ],
      "stateMutability": "view"
    },
    {
      "type": "function",
      "name": "getRewardGrowthInside",
      "inputs": [
        {
          "name": "token",
          "type": "address",
          "internalType": "address"
        },
        {
          "name": "tickLower",
          "type": "int24",
          "internalType": "int24"
        },
        {
          "name": "tickUpper",
          "type": "int24",
          "internalType": "int24"
        }
      ],
      "outputs": [
        {
          "name": "rewardGrowthInsideX128",
          "type": "uint256",
          "internalType": "uint256"
        }
      ],
      "stateMutability": "view"
    },
    {
      "type": "function",
      "name": "pool",
      "inputs": [],
      "outputs": [
        {
          "name": "",
          "type": "address",
          "internalType": "contract IStoryHuntV3Pool"
        }
      ],
      "stateMutability": "view"
    },
    {
      "type": "function",
      "name": "rewardGrowthGlobalX128s",
      "inputs": [
        {
          "name": "",
          "type": "address",
          "internalType": "address"
        }
      ],
      "outputs": [
        {
          "name": "",
          "type": "uint256",
          "internalType": "uint256"
        }
      ],
      "stateMutability": "view"
    },
    {
      "type": "function",
      "name": "rewardTokens",
      "inputs": [
        {
          "name": "",
          "type": "uint256",
          "internalType": "uint256"
        }
      ],
      "outputs": [
        {
          "name": "",
          "type": "address",
          "internalType": "address"
        }
      ],
      "stateMutability": "view"
    },
    {
      "type": "function",
      "name": "updatePosition",
      "inputs": [
        {
          "name": "tickLower",
          "type": "int24",
          "internalType": "int24"
        },
        {
          "name": "tickUpper",
          "type": "int24",
          "internalType": "int24"
        },
        {
          "name": "liquidityDelta",
          "type": "int128",
          "internalType": "int128"
        }
      ],
      "outputs": [],
      "stateMutability": "nonpayable"
    },
    {
      "type": "function",
      "name": "updateRewardTokens",
      "inputs": [
        {
          "name": "tokens",
          "type": "address[]",
          "internalType": "address[]"
        }
      ],
      "outputs": [],
      "stateMutability": "nonpayable"
    }
  ],
  "bytecode": {
    "object": "0x60a06040523480156200001157600080fd5b50600080336001600160a01b031663890357306040518163ffffffff1660e01b8152600401604080518083038186803b1580156200004e57600080fd5b505afa15801562000063573d6000803e3d6000fd5b505050506040513d60408110156200007a57600080fd5b508051602090910151606082901b6001600160601b031916608052600080546001600160a01b0319166001600160a01b03808416919091178083556005805463ffffffff19164263ffffffff161790556040805163c4f59f9b60e01b81529051959750939550169263c4f59f9b926004808201939291829003018186803b1580156200010557600080fd5b505afa1580156200011a573d6000803e3d6000fd5b505050506040513d6000823e601f3d908101601f1916820160405260208110156200014457600080fd5b81019080805160405193929190846401000000008211156200016557600080fd5b9083019060208201858111156200017b57600080fd5b82518660208202830111640100000000821117156200019957600080fd5b82525081516020918201928201910280838360005b83811015620001c8578181015183820152602001620001ae565b505050509190910160405250508251620001eb93600393506020019150620001f4565b50505062000275565b8280548282559060005260206000209081019282156200024c579160200282015b828111156200024c57825182546001600160a01b0319166001600160a01b0390911617825560209092019160019091019062000215565b506200025a9291506200025e565b5090565b5b808211156200025a57600081556001016200025f565b60805160601c6112d5620002b1600039806102b752806102f3528061050c528061086052806109085280610b8e5280610dab52506112d56000f3fe608060405234801561001057600080fd5b50600436106100a95760003560e01c80637bb7bed1116100715780637bb7bed1146101bc5780638910faf1146101d957806393b01a921461020d578063a498463314610233578063e6bbe4241461025b578063f3977a801461027c576100a9565b806316f0115b146100ae5780631b380add146100d2578063214a6fe2146100da5780633d6aa5e1146100ff5780637582742314610119575b600080fd5b6100b66102b5565b604080516001600160a01b039092168252519081900360200190f35b6100b66102d9565b6100fd600480360360208110156100f057600080fd5b503563ffffffff166102e8565b005b610107610774565b60408051918252519081900360200190f35b6100fd6004803603602081101561012f57600080fd5b81019060208101813564010000000081111561014a57600080fd5b82018360208201111561015c57600080fd5b8035906020019184602083028401116401000000008311171561017e57600080fd5b91908080602002602001604051908101604052809392919081815260200183836020028082843760009201919091525092955061077d945050505050565b6100b6600480360360208110156101d257600080fd5b50356107e1565b6100fd600480360360608110156101ef57600080fd5b508035600290810b91602081013590910b9060400135600f0b61080b565b6101076004803603602081101561022357600080fd5b50356001600160a01b0316610b71565b6100fd6004803603604081101561024957600080fd5b50803560020b90602001351515610b83565b610263610d9a565b6040805163ffffffff9092168252519081900360200190f35b6101076004803603606081101561029257600080fd5b506001600160a01b03813516906020810135600290810b9160400135900b610da6565b7f000000000000000000000000000000000000000000000000000000000000000081565b6000546001600160a01b031681565b336001600160a01b037f000000000000000000000000000000000000000000000000000000000000000016148061032957506000546001600160a01b031633145b61037a576040805162461bcd60e51b815260206004820152601760248201527f4e6f7420706f6f6c206f7220416c70686148756e746572000000000000000000604482015290519081900360640190fd5b60005b60035481101561076f57600660006003838154811061039857fe5b60009182526020808320909101546001600160a01b0316835282019290925260400190205463ffffffff16610425576005546003805463ffffffff90921691600691600091859081106103e757fe5b6000918252602080832091909101546001600160a01b031683528201929092526040019020805463ffffffff191663ffffffff929092169190911790555b600660006003838154811061043657fe5b60009182526020808320909101546001600160a01b0316835282019290925260400190205463ffffffff908116908316116104715750610771565b600460006003838154811061048257fe5b60009182526020808320909101546001600160a01b031683528201929092526040019020546001600160801b03161561071857600080546003805483926001600160a01b031691637bb21b4691869081106104d957fe5b600091825260209091200154604080516001600160e01b031960e085901b1681526001600160a01b0392831660048201527f000000000000000000000000000000000000000000000000000000000000000090921660248301528051604480840193829003018186803b15801561054f57600080fd5b505afa158015610563573d6000803e3d6000fd5b505050506040513d604081101561057957600080fd5b508051602090910151909250905080600063ffffffff80871690831611156105e05760066000600387815481106105ac57fe5b60009182526020808320909101546001600160a01b0316835282019290925260400190205463ffffffff1686039050610668565b60066000600387815481106105f157fe5b60009182526020808320909101546001600160a01b0316835282019290925260400190205463ffffffff908116908316111561066857600660006003878154811061063857fe5b60009182526020808320909101546001600160a01b0316835282019290925260400190205463ffffffff16820390505b63ffffffff811615610713576106d68163ffffffff1661069286600160801b64e8d4a51000610e70565b6004600060038a815481106106a357fe5b60009182526020808320909101546001600160a01b031683528201929092526040019020546001600160801b0316610e70565b60016000600388815481106106e757fe5b60009182526020808320909101546001600160a01b031683528201929092526040019020805490910190555b505050505b81600660006003848154811061072a57fe5b6000918252602080832091909101546001600160a01b031683528201929092526040019020805463ffffffff191663ffffffff9290921691909117905560010161037d565b505b50565b64e8d4a5100081565b6000546001600160a01b031633146107ce576040805162461bcd60e51b815260206004820152600f60248201526e2737ba1020b6383430a43ab73a32b960891b604482015290519081900360640190fd5b805161076f906003906020840190611225565b600381815481106107f157600080fd5b6000918252602090912001546001600160a01b0316905081565b6000546001600160a01b0316331461085c576040805162461bcd60e51b815260206004820152600f60248201526e2737ba1020b6383430a43ab73a32b960891b604482015290519081900360640190fd5b60007f00000000000000000000000000000000000000000000000000000000000000006001600160a01b0316633850c7bd6040518163ffffffff1660e01b815260040160e06040518083038186803b1580156108b757600080fd5b505afa1580156108cb573d6000803e3d6000fd5b505050506040513d60e08110156108e157600080fd5b5060209081015160408051633867baa560e11b815290519193506000926001600160a01b037f000000000000000000000000000000000000000000000000000000000000000016926370cf754a926004808201939291829003018186803b15801561094b57600080fd5b505afa15801561095f573d6000803e3d6000fd5b505050506040513d602081101561097557600080fd5b5051905060005b600354811015610b69576000600160006003848154811061099957fe5b60009182526020808320909101546001600160a01b03168352820192909252604001812054915080600f87900b15610a3557610a158987898660008a6002600060038d815481106109e657fe5b60009182526020808320909101546001600160a01b031683528201929092526040019020959493929190610f1f565b9150610a328887898660018a6002600060038d815481106109e657fe5b90505b8860020b8660020b12158015610a5057508760020b8660020b125b15610af257610a9d6004600060038781548110610a6957fe5b60009182526020808320909101546001600160a01b031683528201929092526040019020546001600160801b03168861105e565b6004600060038781548110610aae57fe5b6000918252602080832091909101546001600160a01b03168352820192909252604001902080546001600160801b0319166001600160801b03929092169190911790555b600087600f0b1215610b5e578115610b4357610b43896002600060038881548110610b1957fe5b60009182526020808320909101546001600160a01b0316835282019290925260400190209061111a565b8015610b5e57610b5e886002600060038881548110610b1957fe5b50505060010161097c565b505050505050565b60016020526000908152604090205481565b336001600160a01b037f00000000000000000000000000000000000000000000000000000000000000001614610beb576040805162461bcd60e51b8152602060048201526008602482015267139bdd081c1bdbdb60c21b604482015290519081900360640190fd5b60005b600354811015610d95576002600060038381548110610c0957fe5b60009182526020808320909101546001600160a01b031683528281019390935260409182018120600287810b900b82529092529020546001600160801b0316610c52575061076f565b6000610ce4846001600060038681548110610c6957fe5b9060005260206000200160009054906101000a90046001600160a01b03166001600160a01b03166001600160a01b03168152602001908152602001600020546002600060038781548110610cb957fe5b60009182526020808320909101546001600160a01b0316835282019290925260400190209190611139565b90508215610cf0576000035b610d386004600060038581548110610d0457fe5b60009182526020808320909101546001600160a01b031683528201929092526040019020546001600160801b03168261105e565b6004600060038581548110610d4957fe5b6000918252602080832091909101546001600160a01b03168352820192909252604001902080546001600160801b0319166001600160801b039290921691909117905550600101610bee565b505050565b60055463ffffffff1681565b6000807f00000000000000000000000000000000000000000000000000000000000000006001600160a01b0316633850c7bd6040518163ffffffff1660e01b815260040160e06040518083038186803b158015610e0257600080fd5b505afa158015610e16573d6000803e3d6000fd5b505050506040513d60e0811015610e2c57600080fd5b506020908101516001600160a01b03871660009081526001835260408082205460029094529020909250610e659186908690859061116b565b9150505b9392505050565b6000808060001985870986860292508281109083900303905080610ea65760008411610e9b57600080fd5b508290049050610e69565b808411610eb257600080fd5b6000848688096000868103871696879004966002600389028118808a02820302808a02820302808a02820302808a02820302808a02820302808a02909103029181900381900460010186841190950394909402919094039290920491909117919091029150509392505050565b600286810b900b600090815260208890526040812080546001600160801b031682610f4a828961105e565b9050846001600160801b0316816001600160801b03161115610f98576040805162461bcd60e51b81526020600482015260026024820152614c4f60f01b604482015290519081900360640190fd5b6001600160801b038281161590821615811415945015610fc7578860020b8a60020b13610fc757600183018790555b82546001600160801b0319166001600160801b0382161783558561101057825461100b9061100690600160801b9004600f90810b810b908b900b6111e3565b6111f9565b611031565b82546110319061100690600160801b9004600f90810b810b908b900b61120f565b8354600f9190910b6001600160801b03908116600160801b02911617909255509098975050505050505050565b60008082600f0b12156110c357826001600160801b03168260000384039150816001600160801b0316106110be576040805162461bcd60e51b81526020600482015260026024820152614c5360f01b604482015290519081900360640190fd5b611114565b826001600160801b03168284019150816001600160801b03161015611114576040805162461bcd60e51b81526020600482015260026024820152614c4160f01b604482015290519081900360640190fd5b92915050565b600290810b900b60009081526020919091526040812081815560010155565b600291820b90910b6000908152602092909252604090912060018101805490920390915554600160801b9004600f0b90565b600284810b80820b60009081526020889052604080822087850b850b835290822091939092849187900b126111a5575060018201546111ae565b50600182015484035b60008760020b8760020b12156111c9575060018201546111d2565b50600182015485035b940393909303979650505050505050565b8181018281121560008312151461111457600080fd5b80600f81900b811461120a57600080fd5b919050565b8082038281131560008312151461111457600080fd5b82805482825590600052602060002090810192821561127a579160200282015b8281111561127a57825182546001600160a01b0319166001600160a01b03909116178255602090920191600190910190611245565b5061128692915061128a565b5090565b5b80821115611286576000815560010161128b56fea26469706673582212205c1a2671883933e5a08c137b4dcba127679daab337ad8f4e5dbd9fed73f0317b64736f6c63430007060033",
    "linkReferences": {}
  },
  "methodIdentifiers": {
    "REWARD_PRECISION()": "3d6aa5e1",
    "accumulateReward(uint32)": "214a6fe2",
    "alphaHunter()": "1b380add",
    "crossLmTick(int24,bool)": "a4984633",
    "deployedTimestamp()": "e6bbe424",
    "getRewardGrowthInside(address,int24,int24)": "f3977a80",
    "pool()": "16f0115b",
    "rewardGrowthGlobalX128s(address)": "93b01a92",
    "rewardTokens(uint256)": "7bb7bed1",
    "updatePosition(int24,int24,int128)": "8910faf1",
    "updateRewardTokens(address[])": "75827423"
  },
  "id": 48
}